{
  "contractName": "Auth",
  "abi": [
    {
      "inputs": [],
      "stateMutability": "nonpayable",
      "type": "constructor"
    },
    {
      "anonymous": false,
      "inputs": [
        {
          "indexed": true,
          "internalType": "bytes32",
          "name": "id",
          "type": "bytes32"
        }
      ],
      "name": "ChainlinkCancelled",
      "type": "event"
    },
    {
      "anonymous": false,
      "inputs": [
        {
          "indexed": true,
          "internalType": "bytes32",
          "name": "id",
          "type": "bytes32"
        }
      ],
      "name": "ChainlinkFulfilled",
      "type": "event"
    },
    {
      "anonymous": false,
      "inputs": [
        {
          "indexed": true,
          "internalType": "bytes32",
          "name": "id",
          "type": "bytes32"
        }
      ],
      "name": "ChainlinkRequested",
      "type": "event"
    },
    {
      "inputs": [],
      "name": "price",
      "outputs": [
        {
          "internalType": "uint256",
          "name": "",
          "type": "uint256"
        }
      ],
      "stateMutability": "view",
      "type": "function"
    },
    {
      "inputs": [],
      "name": "token",
      "outputs": [
        {
          "internalType": "string",
          "name": "",
          "type": "string"
        }
      ],
      "stateMutability": "view",
      "type": "function"
    },
    {
      "inputs": [],
      "name": "getPrice",
      "outputs": [
        {
          "internalType": "uint256",
          "name": "",
          "type": "uint256"
        }
      ],
      "stateMutability": "view",
      "type": "function"
    },
    {
      "inputs": [],
      "name": "getToken",
      "outputs": [
        {
          "internalType": "bytes32",
          "name": "requestId",
          "type": "bytes32"
        }
      ],
      "stateMutability": "nonpayable",
      "type": "function"
    },
    {
      "inputs": [
        {
          "internalType": "bytes32",
          "name": "_requestId",
          "type": "bytes32"
        },
        {
          "internalType": "uint256",
          "name": "_price",
          "type": "uint256"
        }
      ],
      "name": "fulfill",
      "outputs": [],
      "stateMutability": "nonpayable",
      "type": "function"
    }
  ],
  "bytecode": "0x6080604052600160045534801561001557600080fd5b506100337370d1f773a9f81c852087b77f6ae6d3032b02d2ab61008e565b600780546001600160a01b031916731cf7d49be7e0c6ac30ded720623490b64f572e171790557f6461323061616530653463383433663639343965356362336637636665386334600855670de0b6b3a76400006009556100b0565b600280546001600160a01b0319166001600160a01b0392909216919091179055565b611012806100bf6000396000f3fe608060405234801561001057600080fd5b50600436106100575760003560e01c806321df0da71461005c5780634357855e1461007a57806398d5fdca1461008f578063a035b1fe14610097578063fc0c546a1461009f575b600080fd5b6100646100b4565b6040516100719190610c9f565b60405180910390f35b61008d610088366004610b79565b610273565b005b6100646102fe565b610064610304565b6100a761030a565b6040516100719190610ca8565b6000806100cb60085430634357855e60e01b610398565b905061010d6040518060400160405280600381526020016219d95d60ea1b8152506040518060a00160405280606f8152602001610f6e606f91398391906103bf565b60408051600280825260608201909252600091816020015b60608152602001906001900390816101255790505090506040518060400160405280601f81526020017f5265616c74696d652043757272656e63792045786368616e67652052617465008152508160008151811061019357634e487b7160e01b600052603260045260246000fd5b60200260200101819052506040518060400160405280601081526020016f352e2045786368616e6765205261746560801b815250816001815181106101e857634e487b7160e01b600052603260045260246000fd5b6020026020010181905250610224604051806040016040528060048152602001630e0c2e8d60e31b81525082846103e29092919063ffffffff16565b60408051808201909152600581526474696d657360d81b60208201526102519083906402540be400610468565b60075460095461026c916001600160a01b0316908490610486565b9250505090565b60008281526005602052604090205482906001600160a01b031633146102b45760405162461bcd60e51b81526004016102ab90610cfe565b60405180910390fd5b60008181526005602052604080822080546001600160a01b03191690555182917f7cc135e0cebb02c3480ae5d74d377283180a2601f8f644edf7987b009316c63a91a25060065550565b60065490565b60065481565b600a805461031790610ee7565b80601f016020809104026020016040519081016040528092919081815260200182805461034390610ee7565b80156103905780601f1061036557610100808354040283529160200191610390565b820191906000526020600020905b81548152906001019060200180831161037357829003601f168201915b505050505081565b6103a0610b0a565b6103a8610b0a565b6103b4818686866104a5565b9150505b9392505050565b60808301516103ce90836104e2565b60808301516103dd90826104e2565b505050565b60808301516103f190836104e2565b6103fe83608001516104f9565b60005b815181101561045a5761044882828151811061042d57634e487b7160e01b600052603260045260246000fd5b602002602001015185608001516104e290919063ffffffff16565b8061045281610f1c565b915050610401565b506103dd8360800151610507565b608083015161047790836104e2565b60808301516103dd9082610512565b600061049d84848460016320214ca360e11b61057b565b949350505050565b6104ad610b0a565b6104bd8560800151610100610736565b50509183526001600160a01b031660208301526001600160e01b031916604082015290565b6104ef8260038351610794565b6103dd828261086e565b610504816004610888565b50565b610504816007610888565b67ffffffffffffffff198112156105325761052d828261089d565b610577565b67ffffffffffffffff81131561054c5761052d82826108dd565b600081126105605761052d82600083610794565b61057782600161057284600019610e91565b610794565b5050565b600030600454604051602001610592929190610be5565b60408051808303601f19018152918152815160209283012060045460608901526000818152600590935281832080546001600160a01b0319166001600160a01b038b16179055905190925082917fb5e6e01e79f91267dc17b4e6314d5d4d03593d2ceee0fbb452b750bd70ea5af991a2600082600080886000015189602001518a604001518b606001518a8d608001516000015160405160240161063d989796959493929190610c07565b60408051601f198184030181529181526020820180516001600160e01b03166001600160e01b0319909416939093179092526002549151630200057560e51b81529092506001600160a01b0390911690634000aea0906106a5908a9089908690600401610c6f565b602060405180830381600087803b1580156106bf57600080fd5b505af11580156106d3573d6000803e3d6000fd5b505050506040513d601f19601f820116820180604052508101906106f79190610b59565b6107135760405162461bcd60e51b81526004016102ab90610cbb565b6001600460008282546107269190610d46565b9091555091979650505050505050565b61073e610b3f565b610749602083610f37565b1561077157610759602083610f37565b610764906020610ed0565b61076e9083610d46565b91505b506020808301829052604080518085526000815283019091019052815b92915050565b601781116107b5576107af8360e0600585901b1683176108fe565b506103dd565b60ff81116107df576107d2836018611fe0600586901b16176108fe565b506107af83826001610916565b61ffff811161080a576107fd836019611fe0600586901b16176108fe565b506107af83826002610916565b63ffffffff81116108375761082a83601a611fe0600586901b16176108fe565b506107af83826004610916565b67ffffffffffffffff81116103dd5761085b83601b611fe0600586901b16176108fe565b5061086883826008610916565b50505050565b610876610b3f565b6103b88384600001515184855161092f565b6103dd82601f611fe0600585901b16176108fe565b6108a88260c36108fe565b50610577826108b983600019610e91565b6040516020016108c99190610c9f565b604051602081830303815290604052610a0c565b6108e88260c26108fe565b5061057782826040516020016108c99190610c9f565b610906610b3f565b6103b88384600001515184610a19565b61091e610b3f565b61049d848560000151518585610a68565b610937610b3f565b825182111561094557600080fd5b60208501516109548386610d46565b11156109875761098785610977876020015187866109729190610d46565b610adc565b610982906002610e72565b610af3565b6000808651805187602083010193508088870111156109a65787860182525b505050602084015b602084106109e657805182526109c5602083610d46565b91506109d2602082610d46565b90506109df602085610ed0565b93506109ae565b51815160001960208690036101000a019081169019919091161790525083949350505050565b6104ef8260028351610794565b610a21610b3f565b83602001518310610a4157610a4184856020015160026109829190610e72565b835180516020858301018481535080851415610a5e576001810182525b5093949350505050565b610a70610b3f565b6020850151610a7f8584610d46565b1115610a9357610a93856109778685610d46565b60006001610aa384610100610da4565b610aad9190610ed0565b9050855183868201018583198251161781525080518487011115610ad15783860181525b509495945050505050565b600081831115610aed57508161078e565b50919050565b8151610aff8383610736565b50610868838261086e565b6040805160a081018252600080825260208201819052918101829052606081019190915260808101610b3a610b3f565b905290565b604051806040016040528060608152602001600081525090565b600060208284031215610b6a578081fd5b815180151581146103b8578182fd5b60008060408385031215610b8b578081fd5b50508035926020909101359150565b60008151808452815b81811015610bbf57602081850181015186830182015201610ba3565b81811115610bd05782602083870101525b50601f01601f19169290920160200192915050565b60609290921b6bffffffffffffffffffffffff19168252601482015260340190565b6001600160a01b0389811682526020820189905260408201889052861660608201526001600160e01b03198516608082015260a0810184905260c0810183905261010060e08201819052600090610c6083820185610b9a565b9b9a5050505050505050505050565b600060018060a01b038516825283602083015260606040830152610c966060830184610b9a565b95945050505050565b90815260200190565b6000602082526103b86020830184610b9a565b60208082526023908201527f756e61626c6520746f207472616e73666572416e6443616c6c20746f206f7261604082015262636c6560e81b606082015260800190565b60208082526028908201527f536f75726365206d75737420626520746865206f7261636c65206f6620746865604082015267081c995c5d595cdd60c21b606082015260800190565b60008219821115610d5957610d59610f57565b500190565b80825b6001808611610d705750610d9b565b818704821115610d8257610d82610f57565b80861615610d8f57918102915b9490941c938002610d61565b94509492505050565b60006103b86000198484600082610dbd575060016103b8565b81610dca575060006103b8565b8160018114610de05760028114610dea57610e17565b60019150506103b8565b60ff841115610dfb57610dfb610f57565b6001841b915084821115610e1157610e11610f57565b506103b8565b5060208310610133831016604e8410600b8410161715610e4a575081810a83811115610e4557610e45610f57565b6103b8565b610e578484846001610d5e565b808604821115610e6957610e69610f57565b02949350505050565b6000816000190483118215151615610e8c57610e8c610f57565b500290565b60008083128015600160ff1b850184121615610eaf57610eaf610f57565b6001600160ff1b0384018313811615610eca57610eca610f57565b50500390565b600082821015610ee257610ee2610f57565b500390565b600281046001821680610efb57607f821691505b60208210811415610aed57634e487b7160e01b600052602260045260246000fd5b6000600019821415610f3057610f30610f57565b5060010190565b600082610f5257634e487b7160e01b81526012600452602481fd5b500690565b634e487b7160e01b600052601160045260246000fdfe68747470733a2f2f7777772e616c70686176616e746167652e636f2f71756572793f66756e6374696f6e3d43555252454e43595f45584348414e47455f524154452666726f6d5f63757272656e63793d42544326746f5f63757272656e63793d434e59266170696b65793d64656d6fa26469706673582212208eeeb5dc20b618da3384dbac279e52a073f7ea1e1b005b821b9c33ae80b38fef64736f6c63430008000033",
  "immutableReferences": {},
  "source": "// SPDX-License-Identifier: MIT\npragma solidity >=0.8.0;\n\nimport \"@chainlink/contracts/src/v0.8/ChainlinkClient.sol\";\n// import \"@nomiclabs/builder/console.sol\";\ncontract Auth is ChainlinkClient {\n    using Chainlink for Chainlink.Request;\n    uint256 public price;\n    \n    address private oracle;\n    bytes32 private jobId;\n    uint256 private fee;\n    string public token;\n    \n   \n    constructor() public {\n        setChainlinkToken(0x70d1F773A9f81C852087B77F6Ae6d3032B02D2AB);\n        oracle = 0x1cf7D49BE7e0c6AC30dEd720623490B64F572E17;\n        jobId = \"da20aae0e4c843f6949e5cb3f7cfe8c4\";\n        fee = 10 ** 18; // 1 LINK\n    }\n\n    function getPrice() public view returns(uint256) {\n        return price;\n    }\n\n    function getToken() public returns (bytes32 requestId) \n    {\n        Chainlink.Request memory request = buildChainlinkRequest(jobId, address(this), this.fulfill.selector);\n        \n        // Set the URL to perform the GET request on\n        // NOTE: If this oracle gets more than 5 requests from this job at a time, it will not return. \n        request.add(\"get\", \"https://www.alphavantage.co/query?function=CURRENCY_EXCHANGE_RATE&from_currency=BTC&to_currency=CNY&apikey=demo\");\n        string[] memory path = new string[](2);\n        path[0] = \"Realtime Currency Exchange Rate\";\n        path[1] = \"5. Exchange Rate\";\n        request.addStringArray(\"path\", path);\n        \n        // Multiply the result by 10000000000 to remove decimals\n        request.addInt(\"times\", 10000000000);\n        \n        // Sends the request\n        return sendChainlinkRequestTo(oracle, request, fee);\n    }\n    \n    /**\n     * Receive the response in the form of uint256\n     */ \n    function fulfill(bytes32 _requestId, uint256 _price) public recordChainlinkFulfillment(_requestId)\n    {\n        price = _price;\n    }\n\n    // function getToken() public returns (bytes32 requestId) \n    // {\n    //     Chainlink.Request memory request = buildChainlinkRequest(jobId, address(this), this.fulfill.selector); \n    //     request.add(\"post\", \"https://auth.truedata.in/token\");\n    //     request.add(\"username\",\"wssand041\");\n    //     request.add(\"password\",\"radhika041\");\n    //     request.add(\"grant_type\",\"password\");\n        \n    //     string[] memory path = new string[](1);\n    //     path[0] = \"access_token\";\n    //     request.addStringArray(\"path\", path);\n        \n    //     return sendChainlinkRequestTo(oracle, request, fee);\n        \n    // }\n    // function fulfill(bytes32 _requestId, string memory _token) public recordChainlinkFulfillment(_requestId)\n    // {\n    //     token = token;\n    // }\n}",
  "sourcePath": "/home/radhika/buildIt/trial-2/contracts/Auth.sol",
  "compiler": {
    "name": "solc",
    "version": "0.8.0+commit.c7dfd78e.Emscripten.clang"
  },
  "schemaVersion": "3.4.3",
  "updatedAt": "2021-12-10T02:04:01.436Z",
  "devdoc": {
    "kind": "dev",
    "methods": {},
    "version": 1
  },
  "userdoc": {
    "kind": "user",
    "methods": {
      "fulfill(bytes32,uint256)": {
        "notice": "Receive the response in the form of uint256"
      }
    },
    "version": 1
  }
}