{
  "contractName": "Caller",
  "abi": [
    {
      "inputs": [],
      "stateMutability": "nonpayable",
      "type": "constructor"
    },
    {
      "anonymous": false,
      "inputs": [
        {
          "indexed": true,
          "internalType": "bytes32",
          "name": "id",
          "type": "bytes32"
        }
      ],
      "name": "ChainlinkCancelled",
      "type": "event"
    },
    {
      "anonymous": false,
      "inputs": [
        {
          "indexed": true,
          "internalType": "bytes32",
          "name": "id",
          "type": "bytes32"
        }
      ],
      "name": "ChainlinkFulfilled",
      "type": "event"
    },
    {
      "anonymous": false,
      "inputs": [
        {
          "indexed": true,
          "internalType": "bytes32",
          "name": "id",
          "type": "bytes32"
        }
      ],
      "name": "ChainlinkRequested",
      "type": "event"
    },
    {
      "anonymous": false,
      "inputs": [
        {
          "indexed": true,
          "internalType": "uint256",
          "name": "value1",
          "type": "uint256"
        }
      ],
      "name": "maticevent",
      "type": "event"
    },
    {
      "anonymous": false,
      "inputs": [
        {
          "indexed": true,
          "internalType": "uint256",
          "name": "value1",
          "type": "uint256"
        }
      ],
      "name": "mtouevent",
      "type": "event"
    },
    {
      "anonymous": false,
      "inputs": [
        {
          "indexed": true,
          "internalType": "uint256",
          "name": "value1",
          "type": "uint256"
        }
      ],
      "name": "priceevent",
      "type": "event"
    },
    {
      "anonymous": false,
      "inputs": [
        {
          "indexed": true,
          "internalType": "uint256",
          "name": "value1",
          "type": "uint256"
        }
      ],
      "name": "utoievent",
      "type": "event"
    },
    {
      "inputs": [],
      "name": "finalMatic",
      "outputs": [
        {
          "internalType": "uint256",
          "name": "",
          "type": "uint256"
        }
      ],
      "stateMutability": "view",
      "type": "function"
    },
    {
      "inputs": [],
      "name": "getMaticToUsdt",
      "outputs": [
        {
          "internalType": "uint256",
          "name": "",
          "type": "uint256"
        }
      ],
      "stateMutability": "nonpayable",
      "type": "function"
    },
    {
      "inputs": [],
      "name": "getUsdtToInr",
      "outputs": [
        {
          "internalType": "bool",
          "name": "",
          "type": "bool"
        }
      ],
      "stateMutability": "nonpayable",
      "type": "function"
    },
    {
      "inputs": [],
      "name": "mToU",
      "outputs": [
        {
          "internalType": "uint256",
          "name": "",
          "type": "uint256"
        }
      ],
      "stateMutability": "view",
      "type": "function"
    },
    {
      "inputs": [],
      "name": "maticToInr",
      "outputs": [
        {
          "internalType": "uint256",
          "name": "",
          "type": "uint256"
        }
      ],
      "stateMutability": "view",
      "type": "function"
    },
    {
      "inputs": [
        {
          "internalType": "string",
          "name": "symbol",
          "type": "string"
        }
      ],
      "name": "readPrice",
      "outputs": [
        {
          "internalType": "uint256",
          "name": "",
          "type": "uint256"
        }
      ],
      "stateMutability": "view",
      "type": "function"
    },
    {
      "inputs": [
        {
          "internalType": "string",
          "name": "symbol",
          "type": "string"
        }
      ],
      "name": "readUpdatedprice",
      "outputs": [
        {
          "internalType": "uint256",
          "name": "",
          "type": "uint256"
        }
      ],
      "stateMutability": "view",
      "type": "function"
    },
    {
      "inputs": [],
      "name": "readUsdtToInr",
      "outputs": [
        {
          "internalType": "uint256",
          "name": "",
          "type": "uint256"
        }
      ],
      "stateMutability": "view",
      "type": "function"
    },
    {
      "inputs": [
        {
          "internalType": "string",
          "name": "symbol",
          "type": "string"
        }
      ],
      "name": "updatePrice",
      "outputs": [
        {
          "internalType": "uint256",
          "name": "",
          "type": "uint256"
        }
      ],
      "stateMutability": "nonpayable",
      "type": "function"
    }
  ],
  "bytecode": "0x6080604052600160045534801561001557600080fd5b506040516100229061011c565b604051809103906000f08015801561003e573d6000803e3d6000fd5b50600680546001600160a01b0319166001600160a01b039290921691909117905560405161006b90610129565b604051809103906000f080158015610087573d6000803e3d6000fd5b50600780546001600160a01b0319166001600160a01b03929092169190911790556040516100b490610136565b604051809103906000f0801580156100d0573d6000803e3d6000fd5b50600860006101000a8154816001600160a01b0302191690836001600160a01b031602179055506002600f60405161010790610143565b90815260405190819003602001902055610156565b6113608061097b83390190565b610e9880611cdb83390190565b610e8280612b7383390190565b6672616468696b6160c81b815260070190565b610816806101656000396000f3fe608060405234801561001057600080fd5b50600436106100a95760003560e01c8063b510fdb611610071578063b510fdb61461011c578063c6e6b4b514610124578063d1823f9d1461012c578063ead0815714610134578063ebff1d8d1461013c578063ffe96ed614610144576100a9565b806309d62218146100ae5780630dc32926146100d75780632a243b56146100ea578063530a6cc8146100ff5780637e91400f14610114575b600080fd5b6100c16100bc366004610637565b61014c565b6040516100ce9190610746565b60405180910390f35b6100c16100e5366004610637565b610174565b6100f2610453565b6040516100ce91906106ff565b610107610462565b6040516100ce91906106f4565b6100c16104e8565b6100c16104ee565b6100f2610570565b6100f261057f565b61010761058e565b6100c16105d4565b6100c1610619565b6000600f8260405161015e91906106d8565b9081526020016040518091039020549050919050565b60075460408051637e91400f60e01b815290516000926001600160a01b031691637e91400f916004808301926020929190829003018186803b1580156101b957600080fd5b505afa1580156101cd573d6000803e3d6000fd5b505050506040513d601f19601f820116820180604052508101906101f1919061061f565b600c8190556040517f418ed39bbbb7a366ad7ff8824ef9574cc6d0af11ff063afe3af8d104dbca1ca290600090a2600860009054906101000a90046001600160a01b03166001600160a01b0316637e91400f6040518163ffffffff1660e01b815260040160206040518083038186803b15801561026d57600080fd5b505afa158015610281573d6000803e3d6000fd5b505050506040513d601f19601f820116820180604052508101906102a5919061061f565b600d8190556040517f88af224a3ccd56f35b1ede52e47adc3d1b4860ff3641ad2630a942b33804090990600090a2600654604051633c0051fb60e01b81526001600160a01b0390911690633c0051fb90610303908590600401610713565b60206040518083038186803b15801561031b57600080fd5b505afa15801561032f573d6000803e3d6000fd5b505050506040513d601f19601f82011682018060405250810190610353919061061f565b600e8190556040517ffb75e928f7b2affa6e7cd03c21dcae3f8e464900f509a8de0a458595effe2df490600090a2600c54600d54600e54610394919061074f565b61039e919061074f565b6103ab90620186a061076f565b60108190556040517f930a4e589e9c9003bd150a87189aacdf98047d3946399ba7cf054815c461005890600090a2600c54600d54600e546103ec919061074f565b6103f6919061074f565b61040390620186a061076f565b600f8360405161041391906106d8565b90815260405190819003602001902055600c54600d54600e54610436919061074f565b610440919061074f565b61044d90620186a061076f565b92915050565b6006546001600160a01b031681565b60075460408051634c6afee560e11b815290516000926001600160a01b0316916398d5fdca91600480830192602092919082900301818787803b1580156104a857600080fd5b505af11580156104bc573d6000803e3d6000fd5b505050506040513d601f19601f820116820180604052508101906104e0919061061f565b506001905090565b600e5490565b60085460408051637e91400f60e01b815290516000926001600160a01b031691637e91400f916004808301926020929190829003018186803b15801561053357600080fd5b505afa158015610547573d6000803e3d6000fd5b505050506040513d601f19601f8201168201806040525081019061056b919061061f565b905090565b6007546001600160a01b031681565b6008546001600160a01b031681565b60085460408051634c6afee560e11b815290516000926001600160a01b0316916398d5fdca91600480830192602092919082900301818787803b1580156104a857600080fd5b60075460408051637e91400f60e01b815290516000926001600160a01b031691637e91400f916004808301926020929190829003018186803b15801561053357600080fd5b60105481565b600060208284031215610630578081fd5b5051919050565b60006020808385031215610649578182fd5b823567ffffffffffffffff80821115610660578384fd5b818501915085601f830112610673578384fd5b813581811115610685576106856107ca565b604051601f8201601f19168101850183811182821017156106a8576106a86107ca565b60405281815283820185018810156106be578586fd5b818585018683013790810190930193909352509392505050565b600082516106ea81846020870161079a565b9190910192915050565b901515815260200190565b6001600160a01b0391909116815260200190565b600060208252825180602084015261073281604085016020870161079a565b601f01601f19169190910160400192915050565b90815260200190565b60008261076a57634e487b7160e01b81526012600452602481fd5b500490565b600081600019048311821515161561079557634e487b7160e01b81526011600452602481fd5b500290565b60005b838110156107b557818101518382015260200161079d565b838111156107c4576000848401525b50505050565b634e487b7160e01b600052604160045260246000fdfea2646970667358221220ca833eb759a3889590f1f85c24eb7d6243d63c28e453f970dc6348357dffb9d664736f6c6343000800003360806040526001600455600f80546001600160a01b03199081167349b488255c8b15b29f4382d5f64235e9ff78fa0d179091556010805490911673527ab77b8e1f7083f2ff01a8f57b235fdd96241f17905534801561005d57600080fd5b5061007b73326c977e6efc84e512bb9c30f76e30c160ed06fb6100d5565b600a80546001600160a01b03191673c8d925525ca8759812d0c299b90247917d4d4b7c1790557f6262663062616461643239643439646338383735303462616366626239303562600b55662386f26fc10000600c556100f7565b600280546001600160a01b0319166001600160a01b0392909216919091179055565b61125a806101066000396000f3fe608060405234801561001057600080fd5b50600436106100885760003560e01c80639e10aa241161005b5780639e10aa24146100f1578063a035b1fe14610106578063b0b675d91461010e578063ffe96ed61461012157610088565b806323814fc51461008d5780633c0051fb146100b65780634357855e146100c9578063524f3889146100de575b600080fd5b6100a061009b366004610c64565b610129565b6040516100ad9190610f47565b60405180910390f35b6100a06100c4366004610c64565b610146565b6100dc6100d7366004610c43565b61016e565b005b6100a06100ec366004610c64565b610220565b6100f961040b565b6040516100ad9190610f50565b6100a0610499565b6100a061011c366004610c64565b61049f565b6100a06104bc565b805160208183018101805160078252928201919093012091525481565b60006008826040516101589190610d53565b9081526020016040518091039020549050919050565b60008281526005602052604090205482906001600160a01b031633146101af5760405162461bcd60e51b81526004016101a690610fa6565b60405180910390fd5b60008181526005602052604080822080546001600160a01b03191690555182917f7cc135e0cebb02c3480ae5d74d377283180a2601f8f644edf7987b009316c63a91a281600681905550816008600960405161020b9190610d6f565b90815260405190819003602001902055505050565b8051600090610236906009906020850190610b3b565b50600061024d600b5430634357855e60e01b6104c2565b90506000836040516020016102629190610e0a565b60408051601f19818403018152828201909152600382526219d95d60ea1b60208301529150610293908390836104e9565b60408051600380825260808201909252600091816020015b60608152602001906001900390816102ab5790505090506040518060400160405280601381526020017254696d652053657269657320284461696c792960681b8152508160008151811061030f57634e487b7160e01b600052603260045260246000fd5b60200260200101819052506040518060400160405280600a815260200169323032312d31322d303960b01b8152508160018151811061035e57634e487b7160e01b600052603260045260246000fd5b602002602001018190525060405180604001604052806008815260200167342e20636c6f736560c01b815250816002815181106103ab57634e487b7160e01b600052603260045260246000fd5b60200260200101819052506103e7604051806040016040528060048152602001630e0c2e8d60e31b815250828561050c9092919063ffffffff16565b600a54600c54610402916001600160a01b0316908590610592565b95945050505050565b6009805461041890611188565b80601f016020809104026020016040519081016040528092919081815260200182805461044490611188565b80156104915780601f1061046657610100808354040283529160200191610491565b820191906000526020600020905b81548152906001019060200180831161047457829003601f168201915b505050505081565b60065481565b805160208183018101805160088252928201919093012091525481565b60115481565b6104ca610bbf565b6104d2610bbf565b6104de818686866105b1565b9150505b9392505050565b60808301516104f890836105ee565b608083015161050790826105ee565b505050565b608083015161051b90836105ee565b6105288360800151610605565b60005b81518110156105845761057282828151811061055757634e487b7160e01b600052603260045260246000fd5b602002602001015185608001516105ee90919063ffffffff16565b8061057c816111bd565b91505061052b565b506105078360800151610613565b60006105a984848460016320214ca360e11b61061e565b949350505050565b6105b9610bbf565b6105c985608001516101006107d9565b50509183526001600160a01b031660208301526001600160e01b031916604082015290565b6105fb8260038351610837565b6105078282610911565b61061081600461092b565b50565b61061081600761092b565b600030600454604051602001610635929190610d31565b60408051808303601f19018152918152815160209283012060045460608901526000818152600590935281832080546001600160a01b0319166001600160a01b038b16179055905190925082917fb5e6e01e79f91267dc17b4e6314d5d4d03593d2ceee0fbb452b750bd70ea5af991a2600082600080886000015189602001518a604001518b606001518a8d60800151600001516040516024016106e0989796959493929190610eb8565b60408051601f198184030181529181526020820180516001600160e01b03166001600160e01b0319909416939093179092526002549151630200057560e51b81529092506001600160a01b0390911690634000aea090610748908a9089908690600401610f20565b602060405180830381600087803b15801561076257600080fd5b505af1158015610776573d6000803e3d6000fd5b505050506040513d601f19601f8201168201806040525081019061079a9190610c23565b6107b65760405162461bcd60e51b81526004016101a690610f63565b6001600460008282546107c99190610ffa565b9091555091979650505050505050565b6107e1610bf4565b6107ec6020836111d8565b15610814576107fc6020836111d8565b610807906020611145565b6108119083610ffa565b91505b506020808301829052604080518085526000815283019091019052815b92915050565b60178111610858576108528360e0600585901b16831761093c565b50610507565b60ff811161088257610875836018611fe0600586901b161761093c565b5061085283826001610954565b61ffff81116108ad576108a0836019611fe0600586901b161761093c565b5061085283826002610954565b63ffffffff81116108da576108cd83601a611fe0600586901b161761093c565b5061085283826004610954565b67ffffffffffffffff8111610507576108fe83601b611fe0600586901b161761093c565b5061090b83826008610954565b50505050565b610919610bf4565b6104e28384600001515184855161096d565b61050782601f611fe0600585901b16175b610944610bf4565b6104e28384600001515184610a4a565b61095c610bf4565b6105a9848560000151518585610a99565b610975610bf4565b825182111561098357600080fd5b60208501516109928386610ffa565b11156109c5576109c5856109b5876020015187866109b09190610ffa565b610b0d565b6109c0906002611126565b610b24565b6000808651805187602083010193508088870111156109e45787860182525b505050602084015b60208410610a245780518252610a03602083610ffa565b9150610a10602082610ffa565b9050610a1d602085611145565b93506109ec565b51815160001960208690036101000a019081169019919091161790525083949350505050565b610a52610bf4565b83602001518310610a7257610a7284856020015160026109c09190611126565b835180516020858301018481535080851415610a8f576001810182525b5093949350505050565b610aa1610bf4565b6020850151610ab08584610ffa565b1115610ac457610ac4856109b58685610ffa565b60006001610ad484610100611058565b610ade9190611145565b9050855183868201018583198251161781525080518487011115610b025783860181525b509495945050505050565b600081831115610b1e575081610831565b50919050565b8151610b3083836107d9565b5061090b8382610911565b828054610b4790611188565b90600052602060002090601f016020900481019282610b695760008555610baf565b82601f10610b8257805160ff1916838001178555610baf565b82800160010185558215610baf579182015b82811115610baf578251825591602001919060010190610b94565b50610bbb929150610c0e565b5090565b6040805160a081018252600080825260208201819052918101829052606081019190915260808101610bef610bf4565b905290565b604051806040016040528060608152602001600081525090565b5b80821115610bbb5760008155600101610c0f565b600060208284031215610c34578081fd5b815180151581146104e2578182fd5b60008060408385031215610c55578081fd5b50508035926020909101359150565b60006020808385031215610c76578182fd5b823567ffffffffffffffff80821115610c8d578384fd5b818501915085601f830112610ca0578384fd5b813581811115610cb257610cb261120e565b604051601f8201601f1916810185018381118282101715610cd557610cd561120e565b6040528181528382018501881015610ceb578586fd5b818585018683013790810190930193909352509392505050565b60008151808452610d1d81602086016020860161115c565b601f01601f19169290920160200192915050565b60609290921b6bffffffffffffffffffffffff19168252601482015260340190565b60008251610d6581846020870161115c565b9190910192915050565b8154600090819060028104600180831680610d8b57607f831692505b6020808410821415610dab57634e487b7160e01b87526022600452602487fd5b818015610dbf5760018114610dd057610dfc565b60ff19861689528489019650610dfc565b610dd98a610fee565b885b86811015610df45781548b820152908501908301610ddb565b505084890196505b509498975050505050505050565b60007f68747470733a2f2f7777772e616c70686176616e746167652e636f2f7175657282527f793f66756e6374696f6e3d54494d455f5345524945535f4441494c592673796d602083015263626f6c3d60e01b60408301528251610e7581604485016020870161115c565b7f26696e74657276616c3d356d696e266170696b65793d52493055475032555935604493909101928301525065514754374f4d60d01b6064820152606a01919050565b6001600160a01b0389811682526020820189905260408201889052861660608201526001600160e01b03198516608082015260a0810184905260c0810183905261010060e08201819052600090610f1183820185610d05565b9b9a5050505050505050505050565b600060018060a01b0385168252836020830152606060408301526104026060830184610d05565b90815260200190565b6000602082526104e26020830184610d05565b60208082526023908201527f756e61626c6520746f207472616e73666572416e6443616c6c20746f206f7261604082015262636c6560e81b606082015260800190565b60208082526028908201527f536f75726365206d75737420626520746865206f7261636c65206f6620746865604082015267081c995c5d595cdd60c21b606082015260800190565b60009081526020902090565b6000821982111561100d5761100d6111f8565b500190565b80825b6001808611611024575061104f565b818704821115611036576110366111f8565b8086161561104357918102915b9490941c938002611015565b94509492505050565b60006104e26000198484600082611071575060016104e2565b8161107e575060006104e2565b8160018114611094576002811461109e576110cb565b60019150506104e2565b60ff8411156110af576110af6111f8565b6001841b9150848211156110c5576110c56111f8565b506104e2565b5060208310610133831016604e8410600b84101617156110fe575081810a838111156110f9576110f96111f8565b6104e2565b61110b8484846001611012565b80860482111561111d5761111d6111f8565b02949350505050565b6000816000190483118215151615611140576111406111f8565b500290565b600082821015611157576111576111f8565b500390565b60005b8381101561117757818101518382015260200161115f565b8381111561090b5750506000910152565b60028104600182168061119c57607f821691505b60208210811415610b1e57634e487b7160e01b600052602260045260246000fd5b60006000198214156111d1576111d16111f8565b5060010190565b6000826111f357634e487b7160e01b81526012600452602481fd5b500690565b634e487b7160e01b600052601160045260246000fd5b634e487b7160e01b600052604160045260246000fdfea264697066735822122045b9a7b789ded6661e12d2c943fa3c0e31e7d425c6a6604dbb19811b5ed55d6264736f6c634300080000336080604052600160045534801561001557600080fd5b5061003373326c977e6efc84e512bb9c30f76e30c160ed06fb61008d565b600780546001600160a01b03191673c8d925525ca8759812d0c299b90247917d4d4b7c1790557f6262663062616461643239643439646338383735303462616366626239303562600855662386f26fc100006009556100af565b600280546001600160a01b0319166001600160a01b0392909216919091179055565b610dda806100be6000396000f3fe608060405234801561001057600080fd5b506004361061004c5760003560e01c80634357855e146100515780637e91400f1461006657806398d5fdca14610084578063a035b1fe1461008c575b600080fd5b61006461005f3660046109b9565b610094565b005b61006e61011f565b60405161007b9190610adf565b60405180910390f35b61006e610125565b61006e6102cb565b60008281526005602052604090205482906001600160a01b031633146100d55760405162461bcd60e51b81526004016100cc90610b2b565b60405180910390fd5b60008181526005602052604080822080546001600160a01b03191690555182917f7cc135e0cebb02c3480ae5d74d377283180a2601f8f644edf7987b009316c63a91a25060065550565b60065490565b600080610150600854732aa091d766a042bdd492cc752144d1cd61f67bf1634357855e60e01b6102d1565b90506101926040518060400160405280600381526020016219d95d60ea1b8152506040518060a00160405280607e8152602001610d27607e91398391906102f8565b60408051600280825260608201909252600091816020015b60608152602001906001900390816101aa5790505090506040518060400160405280601f81526020017f5265616c74696d652043757272656e63792045786368616e67652052617465008152508160008151811061021857634e487b7160e01b600052603260045260246000fd5b60200260200101819052506040518060400160405280601081526020016f352e2045786368616e6765205261746560801b8152508160018151811061026d57634e487b7160e01b600052603260045260246000fd5b60200260200101819052506102a9604051806040016040528060048152602001630e0c2e8d60e31b815250828461031b9092919063ffffffff16565b6007546009546102c4916001600160a01b03169084906103a1565b9250505090565b60065481565b6102d961094a565b6102e161094a565b6102ed818686866103c0565b9150505b9392505050565b608083015161030790836103fd565b608083015161031690826103fd565b505050565b608083015161032a90836103fd565b6103378360800151610414565b60005b81518110156103935761038182828151811061036657634e487b7160e01b600052603260045260246000fd5b602002602001015185608001516103fd90919063ffffffff16565b8061038b81610cd5565b91505061033a565b506103168360800151610422565b60006103b884848460016320214ca360e11b61042d565b949350505050565b6103c861094a565b6103d885608001516101006105e8565b50509183526001600160a01b031660208301526001600160e01b031916604082015290565b61040a8260038351610646565b6103168282610720565b61041f81600461073a565b50565b61041f81600761073a565b600030600454604051602001610444929190610a25565b60408051808303601f19018152918152815160209283012060045460608901526000818152600590935281832080546001600160a01b0319166001600160a01b038b16179055905190925082917fb5e6e01e79f91267dc17b4e6314d5d4d03593d2ceee0fbb452b750bd70ea5af991a2600082600080886000015189602001518a604001518b606001518a8d60800151600001516040516024016104ef989796959493929190610a47565b60408051601f198184030181529181526020820180516001600160e01b03166001600160e01b0319909416939093179092526002549151630200057560e51b81529092506001600160a01b0390911690634000aea090610557908a9089908690600401610aaf565b602060405180830381600087803b15801561057157600080fd5b505af1158015610585573d6000803e3d6000fd5b505050506040513d601f19601f820116820180604052508101906105a99190610999565b6105c55760405162461bcd60e51b81526004016100cc90610ae8565b6001600460008282546105d89190610b73565b9091555091979650505050505050565b6105f061097f565b6105fb602083610cf0565b156106235761060b602083610cf0565b610616906020610cbe565b6106209083610b73565b91505b506020808301829052604080518085526000815283019091019052815b92915050565b60178111610667576106618360e0600585901b16831761074b565b50610316565b60ff811161069157610684836018611fe0600586901b161761074b565b5061066183826001610763565b61ffff81116106bc576106af836019611fe0600586901b161761074b565b5061066183826002610763565b63ffffffff81116106e9576106dc83601a611fe0600586901b161761074b565b5061066183826004610763565b67ffffffffffffffff81116103165761070d83601b611fe0600586901b161761074b565b5061071a83826008610763565b50505050565b61072861097f565b6102f18384600001515184855161077c565b61031682601f611fe0600585901b16175b61075361097f565b6102f18384600001515184610859565b61076b61097f565b6103b88485600001515185856108a8565b61078461097f565b825182111561079257600080fd5b60208501516107a18386610b73565b11156107d4576107d4856107c4876020015187866107bf9190610b73565b61091c565b6107cf906002610c9f565b610933565b6000808651805187602083010193508088870111156107f35787860182525b505050602084015b602084106108335780518252610812602083610b73565b915061081f602082610b73565b905061082c602085610cbe565b93506107fb565b51815160001960208690036101000a019081169019919091161790525083949350505050565b61086161097f565b836020015183106108815761088184856020015160026107cf9190610c9f565b83518051602085830101848153508085141561089e576001810182525b5093949350505050565b6108b061097f565b60208501516108bf8584610b73565b11156108d3576108d3856107c48685610b73565b600060016108e384610100610bd1565b6108ed9190610cbe565b90508551838682010185831982511617815250805184870111156109115783860181525b509495945050505050565b60008183111561092d575081610640565b50919050565b815161093f83836105e8565b5061071a8382610720565b6040805160a08101825260008082526020820181905291810182905260608101919091526080810161097a61097f565b905290565b604051806040016040528060608152602001600081525090565b6000602082840312156109aa578081fd5b815180151581146102f1578182fd5b600080604083850312156109cb578081fd5b50508035926020909101359150565b60008151808452815b818110156109ff576020818501810151868301820152016109e3565b81811115610a105782602083870101525b50601f01601f19169290920160200192915050565b60609290921b6bffffffffffffffffffffffff19168252601482015260340190565b6001600160a01b0389811682526020820189905260408201889052861660608201526001600160e01b03198516608082015260a0810184905260c0810183905261010060e08201819052600090610aa0838201856109da565b9b9a5050505050505050505050565b600060018060a01b038516825283602083015260606040830152610ad660608301846109da565b95945050505050565b90815260200190565b60208082526023908201527f756e61626c6520746f207472616e73666572416e6443616c6c20746f206f7261604082015262636c6560e81b606082015260800190565b60208082526028908201527f536f75726365206d75737420626520746865206f7261636c65206f6620746865604082015267081c995c5d595cdd60c21b606082015260800190565b60008219821115610b8657610b86610d10565b500190565b80825b6001808611610b9d5750610bc8565b818704821115610baf57610baf610d10565b80861615610bbc57918102915b9490941c938002610b8e565b94509492505050565b60006102f16000198484600082610bea575060016102f1565b81610bf7575060006102f1565b8160018114610c0d5760028114610c1757610c44565b60019150506102f1565b60ff841115610c2857610c28610d10565b6001841b915084821115610c3e57610c3e610d10565b506102f1565b5060208310610133831016604e8410600b8410161715610c77575081810a83811115610c7257610c72610d10565b6102f1565b610c848484846001610b8b565b808604821115610c9657610c96610d10565b02949350505050565b6000816000190483118215151615610cb957610cb9610d10565b500290565b600082821015610cd057610cd0610d10565b500390565b6000600019821415610ce957610ce9610d10565b5060010190565b600082610d0b57634e487b7160e01b81526012600452602481fd5b500690565b634e487b7160e01b600052601160045260246000fdfe68747470733a2f2f7777772e616c70686176616e746167652e636f2f71756572793f66756e6374696f6e3d43555252454e43595f45584348414e47455f524154452666726f6d5f63757272656e63793d4d4154494326746f5f63757272656e63793d55534454266170696b65793d52493055475032555935514754374f4da2646970667358221220e6ce99d986009eb9b29dfb8bfe2e21bebde7ab8e9268ff98a62dab4030ad640664736f6c634300080000336080604052600160045534801561001557600080fd5b5061003373326c977e6efc84e512bb9c30f76e30c160ed06fb61008d565b600780546001600160a01b03191673c8d925525ca8759812d0c299b90247917d4d4b7c1790557f6262663062616461643239643439646338383735303462616366626239303562600855662386f26fc100006009556100af565b600280546001600160a01b0319166001600160a01b0392909216919091179055565b610dc4806100be6000396000f3fe608060405234801561001057600080fd5b506004361061004c5760003560e01c80634357855e146100515780637e91400f1461006657806398d5fdca14610084578063a035b1fe1461008c575b600080fd5b61006461005f3660046109a5565b610094565b005b61006e61011f565b60405161007b9190610acb565b60405180910390f35b61006e610125565b61006e6102b7565b60008281526005602052604090205482906001600160a01b031633146100d55760405162461bcd60e51b81526004016100cc90610b17565b60405180910390fd5b60008181526005602052604080822080546001600160a01b03191690555182917f7cc135e0cebb02c3480ae5d74d377283180a2601f8f644edf7987b009316c63a91a25060065550565b60065490565b60008061013c60085430634357855e60e01b6102bd565b905061017e6040518060400160405280600381526020016219d95d60ea1b8152506040518060a00160405280607c8152602001610d13607c91398391906102e4565b60408051600280825260608201909252600091816020015b60608152602001906001900390816101965790505090506040518060400160405280601f81526020017f5265616c74696d652043757272656e63792045786368616e67652052617465008152508160008151811061020457634e487b7160e01b600052603260045260246000fd5b60200260200101819052506040518060400160405280601081526020016f352e2045786368616e6765205261746560801b8152508160018151811061025957634e487b7160e01b600052603260045260246000fd5b6020026020010181905250610295604051806040016040528060048152602001630e0c2e8d60e31b81525082846103079092919063ffffffff16565b6007546009546102b0916001600160a01b031690849061038d565b9250505090565b60065481565b6102c5610936565b6102cd610936565b6102d9818686866103ac565b9150505b9392505050565b60808301516102f390836103e9565b608083015161030290826103e9565b505050565b608083015161031690836103e9565b6103238360800151610400565b60005b815181101561037f5761036d82828151811061035257634e487b7160e01b600052603260045260246000fd5b602002602001015185608001516103e990919063ffffffff16565b8061037781610cc1565b915050610326565b50610302836080015161040e565b60006103a484848460016320214ca360e11b610419565b949350505050565b6103b4610936565b6103c485608001516101006105d4565b50509183526001600160a01b031660208301526001600160e01b031916604082015290565b6103f68260038351610632565b610302828261070c565b61040b816004610726565b50565b61040b816007610726565b600030600454604051602001610430929190610a11565b60408051808303601f19018152918152815160209283012060045460608901526000818152600590935281832080546001600160a01b0319166001600160a01b038b16179055905190925082917fb5e6e01e79f91267dc17b4e6314d5d4d03593d2ceee0fbb452b750bd70ea5af991a2600082600080886000015189602001518a604001518b606001518a8d60800151600001516040516024016104db989796959493929190610a33565b60408051601f198184030181529181526020820180516001600160e01b03166001600160e01b0319909416939093179092526002549151630200057560e51b81529092506001600160a01b0390911690634000aea090610543908a9089908690600401610a9b565b602060405180830381600087803b15801561055d57600080fd5b505af1158015610571573d6000803e3d6000fd5b505050506040513d601f19601f820116820180604052508101906105959190610985565b6105b15760405162461bcd60e51b81526004016100cc90610ad4565b6001600460008282546105c49190610b5f565b9091555091979650505050505050565b6105dc61096b565b6105e7602083610cdc565b1561060f576105f7602083610cdc565b610602906020610caa565b61060c9083610b5f565b91505b506020808301829052604080518085526000815283019091019052815b92915050565b601781116106535761064d8360e0600585901b168317610737565b50610302565b60ff811161067d57610670836018611fe0600586901b1617610737565b5061064d8382600161074f565b61ffff81116106a85761069b836019611fe0600586901b1617610737565b5061064d8382600261074f565b63ffffffff81116106d5576106c883601a611fe0600586901b1617610737565b5061064d8382600461074f565b67ffffffffffffffff8111610302576106f983601b611fe0600586901b1617610737565b506107068382600861074f565b50505050565b61071461096b565b6102dd83846000015151848551610768565b61030282601f611fe0600585901b16175b61073f61096b565b6102dd8384600001515184610845565b61075761096b565b6103a4848560000151518585610894565b61077061096b565b825182111561077e57600080fd5b602085015161078d8386610b5f565b11156107c0576107c0856107b0876020015187866107ab9190610b5f565b610908565b6107bb906002610c8b565b61091f565b6000808651805187602083010193508088870111156107df5787860182525b505050602084015b6020841061081f57805182526107fe602083610b5f565b915061080b602082610b5f565b9050610818602085610caa565b93506107e7565b51815160001960208690036101000a019081169019919091161790525083949350505050565b61084d61096b565b8360200151831061086d5761086d84856020015160026107bb9190610c8b565b83518051602085830101848153508085141561088a576001810182525b5093949350505050565b61089c61096b565b60208501516108ab8584610b5f565b11156108bf576108bf856107b08685610b5f565b600060016108cf84610100610bbd565b6108d99190610caa565b90508551838682010185831982511617815250805184870111156108fd5783860181525b509495945050505050565b60008183111561091957508161062c565b50919050565b815161092b83836105d4565b50610706838261070c565b6040805160a08101825260008082526020820181905291810182905260608101919091526080810161096661096b565b905290565b604051806040016040528060608152602001600081525090565b600060208284031215610996578081fd5b815180151581146102dd578182fd5b600080604083850312156109b7578081fd5b50508035926020909101359150565b60008151808452815b818110156109eb576020818501810151868301820152016109cf565b818111156109fc5782602083870101525b50601f01601f19169290920160200192915050565b60609290921b6bffffffffffffffffffffffff19168252601482015260340190565b6001600160a01b0389811682526020820189905260408201889052861660608201526001600160e01b03198516608082015260a0810184905260c0810183905261010060e08201819052600090610a8c838201856109c6565b9b9a5050505050505050505050565b600060018060a01b038516825283602083015260606040830152610ac260608301846109c6565b95945050505050565b90815260200190565b60208082526023908201527f756e61626c6520746f207472616e73666572416e6443616c6c20746f206f7261604082015262636c6560e81b606082015260800190565b60208082526028908201527f536f75726365206d75737420626520746865206f7261636c65206f6620746865604082015267081c995c5d595cdd60c21b606082015260800190565b60008219821115610b7257610b72610cfc565b500190565b80825b6001808611610b895750610bb4565b818704821115610b9b57610b9b610cfc565b80861615610ba857918102915b9490941c938002610b7a565b94509492505050565b60006102dd6000198484600082610bd6575060016102dd565b81610be3575060006102dd565b8160018114610bf95760028114610c0357610c30565b60019150506102dd565b60ff841115610c1457610c14610cfc565b6001841b915084821115610c2a57610c2a610cfc565b506102dd565b5060208310610133831016604e8410600b8410161715610c63575081810a83811115610c5e57610c5e610cfc565b6102dd565b610c708484846001610b77565b808604821115610c8257610c82610cfc565b02949350505050565b6000816000190483118215151615610ca557610ca5610cfc565b500290565b600082821015610cbc57610cbc610cfc565b500390565b6000600019821415610cd557610cd5610cfc565b5060010190565b600082610cf757634e487b7160e01b81526012600452602481fd5b500690565b634e487b7160e01b600052601160045260246000fdfe68747470733a2f2f7777772e616c70686176616e746167652e636f2f71756572793f66756e6374696f6e3d43555252454e43595f45584348414e47455f524154452666726f6d5f63757272656e63793d5553445426746f5f63757272656e63793d494e52266170696b65793d52493055475032555935514754374f4da2646970667358221220d56565560edc47331dbc2d3a4bb1d5d85004c75b0499c4895881317d9365143864736f6c63430008000033",
  "immutableReferences": {},
  "source": "// SPDX-License-Identifier: MIT\npragma solidity >=0.8.0;\n\nimport \"./MaticToUsdt.sol\";\nimport \"./UsdtToInr.sol\";\nimport \"./Price.sol\";\nimport \"@chainlink/contracts/src/v0.8/ChainlinkClient.sol\";\n\ncontract Caller is ChainlinkClient {\n    using Chainlink for Chainlink.Request;\n    \n    \n    event mtouevent(uint256 indexed value1);\n    event utoievent(uint256 indexed value1);\n    event maticevent(uint256 indexed value1);\n    event priceevent(uint256 indexed value1);\n    Price public priceInstance;\n    MaticToUsdt public maticToUsdtInstance;\n    UsdtToInr public usdtToInrInstance;\n    address private oracle;\n    bytes32 private jobId;\n    uint256 private fee;\n    uint256 private mToU;\n    uint256 private UToI;\n    uint256 private price;\n    mapping(string => uint256) private map;\n    uint256 public finalMatic;\n    constructor() {\n        priceInstance = new Price();\n        maticToUsdtInstance = new MaticToUsdt();\n        usdtToInrInstance = new UsdtToInr();\n        map[\"radhika\"] = 2;\n    }\n\n    function readPrice() public view returns(uint256) {\n        return price;\n    }\n\n    function getMaticToUsdt() public returns(bool){\n        maticToUsdtInstance.getPrice();\n        return true;\n    }\n\n    function readMaticToUsdt() public view returns(uint256){\n        return maticToUsdtInstance.readPrice();\n    }\n\n    function getUsdtToInr() public returns(bool){\n        usdtToInrInstance.getPrice();\n        return true;\n    }\n\n    function readUsdtToInr() public view returns(uint256){\n        return usdtToInrInstance.readPrice();\n    }\n\n    function updatePrice(string memory symbol) public returns(uint256){\n        mToU = maticToUsdtInstance.readPrice();\n        emit mtouevent(mToU); // log the current value\n        UToI = usdtToInrInstance.readPrice();\n        emit utoievent(UToI); // log the current value\n        price = priceInstance.readPrice(symbol);\n        emit priceevent(price);\n        // require(price == 0,\"Price is zero!\");\n        // require(mToU == 0,\"mToU is zero\");\n        // require(UToI == 0,\"UToI is zero\");\n        finalMatic = ((price/UToI)/mToU)*100000;\n        emit maticevent(finalMatic);\n        map[symbol] = ((price/UToI)/mToU)*100000;\n        return (((price/UToI)/mToU)*100000);\n    }\n    function readUpdatedprice(string memory symbol) public view returns (uint256){\n        return map[symbol];\n    }\n\n}",
  "sourcePath": "/home/radhika/buildIt/trial-2/contracts/Caller.sol",
  "compiler": {
    "name": "solc",
    "version": "0.8.0+commit.c7dfd78e.Emscripten.clang"
  },
  "schemaVersion": "3.4.3",
  "updatedAt": "2021-12-11T04:50:48.089Z",
  "devdoc": {
    "kind": "dev",
    "methods": {},
    "version": 1
  },
  "userdoc": {
    "kind": "user",
    "methods": {},
    "version": 1
  }
}