{
  "contractName": "MaticToUsdt",
  "abi": [
    {
      "inputs": [],
      "stateMutability": "nonpayable",
      "type": "constructor"
    },
    {
      "anonymous": false,
      "inputs": [
        {
          "indexed": true,
          "internalType": "bytes32",
          "name": "id",
          "type": "bytes32"
        }
      ],
      "name": "ChainlinkCancelled",
      "type": "event"
    },
    {
      "anonymous": false,
      "inputs": [
        {
          "indexed": true,
          "internalType": "bytes32",
          "name": "id",
          "type": "bytes32"
        }
      ],
      "name": "ChainlinkFulfilled",
      "type": "event"
    },
    {
      "anonymous": false,
      "inputs": [
        {
          "indexed": true,
          "internalType": "bytes32",
          "name": "id",
          "type": "bytes32"
        }
      ],
      "name": "ChainlinkRequested",
      "type": "event"
    },
    {
      "inputs": [],
      "name": "price",
      "outputs": [
        {
          "internalType": "uint256",
          "name": "",
          "type": "uint256"
        }
      ],
      "stateMutability": "view",
      "type": "function"
    },
    {
      "inputs": [],
      "name": "readPrice",
      "outputs": [
        {
          "internalType": "uint256",
          "name": "",
          "type": "uint256"
        }
      ],
      "stateMutability": "view",
      "type": "function"
    },
    {
      "inputs": [],
      "name": "getPrice",
      "outputs": [
        {
          "internalType": "bytes32",
          "name": "requestId",
          "type": "bytes32"
        }
      ],
      "stateMutability": "nonpayable",
      "type": "function"
    },
    {
      "inputs": [
        {
          "internalType": "bytes32",
          "name": "_requestId",
          "type": "bytes32"
        },
        {
          "internalType": "uint256",
          "name": "_price",
          "type": "uint256"
        }
      ],
      "name": "fulfill",
      "outputs": [],
      "stateMutability": "nonpayable",
      "type": "function"
    }
  ],
  "bytecode": "0x6080604052600160045534801561001557600080fd5b5061003373326c977e6efc84e512bb9c30f76e30c160ed06fb61008d565b600780546001600160a01b03191673c8d925525ca8759812d0c299b90247917d4d4b7c1790557f6262663062616461643239643439646338383735303462616366626239303562600855662386f26fc100006009556100af565b600280546001600160a01b0319166001600160a01b0392909216919091179055565b610dda806100be6000396000f3fe608060405234801561001057600080fd5b506004361061004c5760003560e01c80634357855e146100515780637e91400f1461006657806398d5fdca14610084578063a035b1fe1461008c575b600080fd5b61006461005f3660046109b9565b610094565b005b61006e61011f565b60405161007b9190610adf565b60405180910390f35b61006e610125565b61006e6102cb565b60008281526005602052604090205482906001600160a01b031633146100d55760405162461bcd60e51b81526004016100cc90610b2b565b60405180910390fd5b60008181526005602052604080822080546001600160a01b03191690555182917f7cc135e0cebb02c3480ae5d74d377283180a2601f8f644edf7987b009316c63a91a25060065550565b60065490565b600080610150600854732aa091d766a042bdd492cc752144d1cd61f67bf1634357855e60e01b6102d1565b90506101926040518060400160405280600381526020016219d95d60ea1b8152506040518060a00160405280607e8152602001610d27607e91398391906102f8565b60408051600280825260608201909252600091816020015b60608152602001906001900390816101aa5790505090506040518060400160405280601f81526020017f5265616c74696d652043757272656e63792045786368616e67652052617465008152508160008151811061021857634e487b7160e01b600052603260045260246000fd5b60200260200101819052506040518060400160405280601081526020016f352e2045786368616e6765205261746560801b8152508160018151811061026d57634e487b7160e01b600052603260045260246000fd5b60200260200101819052506102a9604051806040016040528060048152602001630e0c2e8d60e31b815250828461031b9092919063ffffffff16565b6007546009546102c4916001600160a01b03169084906103a1565b9250505090565b60065481565b6102d961094a565b6102e161094a565b6102ed818686866103c0565b9150505b9392505050565b608083015161030790836103fd565b608083015161031690826103fd565b505050565b608083015161032a90836103fd565b6103378360800151610414565b60005b81518110156103935761038182828151811061036657634e487b7160e01b600052603260045260246000fd5b602002602001015185608001516103fd90919063ffffffff16565b8061038b81610cd5565b91505061033a565b506103168360800151610422565b60006103b884848460016320214ca360e11b61042d565b949350505050565b6103c861094a565b6103d885608001516101006105e8565b50509183526001600160a01b031660208301526001600160e01b031916604082015290565b61040a8260038351610646565b6103168282610720565b61041f81600461073a565b50565b61041f81600761073a565b600030600454604051602001610444929190610a25565b60408051808303601f19018152918152815160209283012060045460608901526000818152600590935281832080546001600160a01b0319166001600160a01b038b16179055905190925082917fb5e6e01e79f91267dc17b4e6314d5d4d03593d2ceee0fbb452b750bd70ea5af991a2600082600080886000015189602001518a604001518b606001518a8d60800151600001516040516024016104ef989796959493929190610a47565b60408051601f198184030181529181526020820180516001600160e01b03166001600160e01b0319909416939093179092526002549151630200057560e51b81529092506001600160a01b0390911690634000aea090610557908a9089908690600401610aaf565b602060405180830381600087803b15801561057157600080fd5b505af1158015610585573d6000803e3d6000fd5b505050506040513d601f19601f820116820180604052508101906105a99190610999565b6105c55760405162461bcd60e51b81526004016100cc90610ae8565b6001600460008282546105d89190610b73565b9091555091979650505050505050565b6105f061097f565b6105fb602083610cf0565b156106235761060b602083610cf0565b610616906020610cbe565b6106209083610b73565b91505b506020808301829052604080518085526000815283019091019052815b92915050565b60178111610667576106618360e0600585901b16831761074b565b50610316565b60ff811161069157610684836018611fe0600586901b161761074b565b5061066183826001610763565b61ffff81116106bc576106af836019611fe0600586901b161761074b565b5061066183826002610763565b63ffffffff81116106e9576106dc83601a611fe0600586901b161761074b565b5061066183826004610763565b67ffffffffffffffff81116103165761070d83601b611fe0600586901b161761074b565b5061071a83826008610763565b50505050565b61072861097f565b6102f18384600001515184855161077c565b61031682601f611fe0600585901b16175b61075361097f565b6102f18384600001515184610859565b61076b61097f565b6103b88485600001515185856108a8565b61078461097f565b825182111561079257600080fd5b60208501516107a18386610b73565b11156107d4576107d4856107c4876020015187866107bf9190610b73565b61091c565b6107cf906002610c9f565b610933565b6000808651805187602083010193508088870111156107f35787860182525b505050602084015b602084106108335780518252610812602083610b73565b915061081f602082610b73565b905061082c602085610cbe565b93506107fb565b51815160001960208690036101000a019081169019919091161790525083949350505050565b61086161097f565b836020015183106108815761088184856020015160026107cf9190610c9f565b83518051602085830101848153508085141561089e576001810182525b5093949350505050565b6108b061097f565b60208501516108bf8584610b73565b11156108d3576108d3856107c48685610b73565b600060016108e384610100610bd1565b6108ed9190610cbe565b90508551838682010185831982511617815250805184870111156109115783860181525b509495945050505050565b60008183111561092d575081610640565b50919050565b815161093f83836105e8565b5061071a8382610720565b6040805160a08101825260008082526020820181905291810182905260608101919091526080810161097a61097f565b905290565b604051806040016040528060608152602001600081525090565b6000602082840312156109aa578081fd5b815180151581146102f1578182fd5b600080604083850312156109cb578081fd5b50508035926020909101359150565b60008151808452815b818110156109ff576020818501810151868301820152016109e3565b81811115610a105782602083870101525b50601f01601f19169290920160200192915050565b60609290921b6bffffffffffffffffffffffff19168252601482015260340190565b6001600160a01b0389811682526020820189905260408201889052861660608201526001600160e01b03198516608082015260a0810184905260c0810183905261010060e08201819052600090610aa0838201856109da565b9b9a5050505050505050505050565b600060018060a01b038516825283602083015260606040830152610ad660608301846109da565b95945050505050565b90815260200190565b60208082526023908201527f756e61626c6520746f207472616e73666572416e6443616c6c20746f206f7261604082015262636c6560e81b606082015260800190565b60208082526028908201527f536f75726365206d75737420626520746865206f7261636c65206f6620746865604082015267081c995c5d595cdd60c21b606082015260800190565b60008219821115610b8657610b86610d10565b500190565b80825b6001808611610b9d5750610bc8565b818704821115610baf57610baf610d10565b80861615610bbc57918102915b9490941c938002610b8e565b94509492505050565b60006102f16000198484600082610bea575060016102f1565b81610bf7575060006102f1565b8160018114610c0d5760028114610c1757610c44565b60019150506102f1565b60ff841115610c2857610c28610d10565b6001841b915084821115610c3e57610c3e610d10565b506102f1565b5060208310610133831016604e8410600b8410161715610c77575081810a83811115610c7257610c72610d10565b6102f1565b610c848484846001610b8b565b808604821115610c9657610c96610d10565b02949350505050565b6000816000190483118215151615610cb957610cb9610d10565b500290565b600082821015610cd057610cd0610d10565b500390565b6000600019821415610ce957610ce9610d10565b5060010190565b600082610d0b57634e487b7160e01b81526012600452602481fd5b500690565b634e487b7160e01b600052601160045260246000fdfe68747470733a2f2f7777772e616c70686176616e746167652e636f2f71756572793f66756e6374696f6e3d43555252454e43595f45584348414e47455f524154452666726f6d5f63757272656e63793d4d4154494326746f5f63757272656e63793d55534454266170696b65793d52493055475032555935514754374f4da2646970667358221220e6ce99d986009eb9b29dfb8bfe2e21bebde7ab8e9268ff98a62dab4030ad640664736f6c63430008000033",
  "immutableReferences": {},
  "source": "// SPDX-License-Identifier: MIT\npragma solidity >=0.8.0;\n\n\nimport \"@chainlink/contracts/src/v0.8/ChainlinkClient.sol\";\ncontract MaticToUsdt is ChainlinkClient {\n    using Chainlink for Chainlink.Request;\n    uint256 public price;\n    \n    address private oracle;\n    bytes32 private jobId;\n    uint256 private fee;\n    \n   \n    constructor() {\n        setChainlinkToken(0x326C977E6efc84E512bB9C30f76E30c160eD06FB);\n        oracle = 0xc8D925525CA8759812d0c299B90247917d4d4b7C;\n        jobId = \"bbf0badad29d49dc887504bacfbb905b\";\n        fee = 0.01 * 10 ** 18;\n    }\n\n    // function readToken() public view returns(bytes32) {\n    //     return token;\n    // }\n\n    function readPrice() public view returns(uint256) {\n        return price;\n    }\n\n\n    function getPrice() public returns (bytes32 requestId) \n    {\n        Chainlink.Request memory request = buildChainlinkRequest(jobId, 0x2AA091D766A042Bdd492cC752144D1cD61F67bF1, this.fulfill.selector); \n        request.add(\"get\", \"https://www.alphavantage.co/query?function=CURRENCY_EXCHANGE_RATE&from_currency=MATIC&to_currency=USDT&apikey=RI0UGP2UY5QGT7OM\");\n        \n        string[] memory path = new string[](2);\n        path[0] = \"Realtime Currency Exchange Rate\";\n        path[1] = \"5. Exchange Rate\";\n        request.addStringArray(\"path\", path);\n        \n        return sendChainlinkRequestTo(oracle, request, fee);\n        \n    }\n\n    function fulfill(bytes32 _requestId, uint256 _price) public recordChainlinkFulfillment(_requestId)\n    {\n        price = _price;\n\n    }\n}",
  "sourcePath": "/home/radhika/buildIt/trial-2/contracts/MaticToUsdt.sol",
  "compiler": {
    "name": "solc",
    "version": "0.8.0+commit.c7dfd78e.Emscripten.clang"
  },
  "schemaVersion": "3.4.3",
  "updatedAt": "2021-12-11T04:50:48.097Z",
  "devdoc": {
    "kind": "dev",
    "methods": {},
    "version": 1
  },
  "userdoc": {
    "kind": "user",
    "methods": {},
    "version": 1
  }
}