{
  "contractName": "Price",
  "abi": [
    {
      "inputs": [],
      "stateMutability": "nonpayable",
      "type": "constructor"
    },
    {
      "anonymous": false,
      "inputs": [
        {
          "indexed": true,
          "internalType": "bytes32",
          "name": "id",
          "type": "bytes32"
        }
      ],
      "name": "ChainlinkCancelled",
      "type": "event"
    },
    {
      "anonymous": false,
      "inputs": [
        {
          "indexed": true,
          "internalType": "bytes32",
          "name": "id",
          "type": "bytes32"
        }
      ],
      "name": "ChainlinkFulfilled",
      "type": "event"
    },
    {
      "anonymous": false,
      "inputs": [
        {
          "indexed": true,
          "internalType": "bytes32",
          "name": "id",
          "type": "bytes32"
        }
      ],
      "name": "ChainlinkRequested",
      "type": "event"
    },
    {
      "anonymous": false,
      "inputs": [
        {
          "indexed": true,
          "internalType": "uint256",
          "name": "value1",
          "type": "uint256"
        }
      ],
      "name": "maticevent",
      "type": "event"
    },
    {
      "anonymous": false,
      "inputs": [
        {
          "indexed": true,
          "internalType": "uint256",
          "name": "value1",
          "type": "uint256"
        }
      ],
      "name": "mtouevent",
      "type": "event"
    },
    {
      "anonymous": false,
      "inputs": [
        {
          "indexed": true,
          "internalType": "uint256",
          "name": "value1",
          "type": "uint256"
        }
      ],
      "name": "priceevent",
      "type": "event"
    },
    {
      "anonymous": false,
      "inputs": [
        {
          "indexed": true,
          "internalType": "uint256",
          "name": "value1",
          "type": "uint256"
        }
      ],
      "name": "utoievent",
      "type": "event"
    },
    {
      "inputs": [],
      "name": "finalMatic",
      "outputs": [
        {
          "internalType": "uint256",
          "name": "",
          "type": "uint256"
        }
      ],
      "stateMutability": "view",
      "type": "function"
    },
    {
      "inputs": [
        {
          "internalType": "string",
          "name": "",
          "type": "string"
        }
      ],
      "name": "map",
      "outputs": [
        {
          "internalType": "uint256",
          "name": "",
          "type": "uint256"
        }
      ],
      "stateMutability": "view",
      "type": "function"
    },
    {
      "inputs": [],
      "name": "price",
      "outputs": [
        {
          "internalType": "uint256",
          "name": "",
          "type": "uint256"
        }
      ],
      "stateMutability": "view",
      "type": "function"
    },
    {
      "inputs": [
        {
          "internalType": "string",
          "name": "",
          "type": "string"
        }
      ],
      "name": "priceMap",
      "outputs": [
        {
          "internalType": "uint256",
          "name": "",
          "type": "uint256"
        }
      ],
      "stateMutability": "view",
      "type": "function"
    },
    {
      "inputs": [],
      "name": "ssymbol",
      "outputs": [
        {
          "internalType": "string",
          "name": "",
          "type": "string"
        }
      ],
      "stateMutability": "view",
      "type": "function"
    },
    {
      "inputs": [
        {
          "internalType": "string",
          "name": "symbol",
          "type": "string"
        }
      ],
      "name": "readPrice",
      "outputs": [
        {
          "internalType": "uint256",
          "name": "",
          "type": "uint256"
        }
      ],
      "stateMutability": "view",
      "type": "function"
    },
    {
      "inputs": [
        {
          "internalType": "string",
          "name": "symbol",
          "type": "string"
        }
      ],
      "name": "getPrice",
      "outputs": [
        {
          "internalType": "bytes32",
          "name": "requestId",
          "type": "bytes32"
        }
      ],
      "stateMutability": "nonpayable",
      "type": "function"
    },
    {
      "inputs": [
        {
          "internalType": "bytes32",
          "name": "_requestId",
          "type": "bytes32"
        },
        {
          "internalType": "uint256",
          "name": "_price",
          "type": "uint256"
        }
      ],
      "name": "fulfill",
      "outputs": [],
      "stateMutability": "nonpayable",
      "type": "function"
    }
  ],
  "bytecode": "0x60806040526001600455600f80546001600160a01b03199081167349b488255c8b15b29f4382d5f64235e9ff78fa0d179091556010805490911673527ab77b8e1f7083f2ff01a8f57b235fdd96241f17905534801561005d57600080fd5b5061007b73326c977e6efc84e512bb9c30f76e30c160ed06fb6100d5565b600a80546001600160a01b03191673c8d925525ca8759812d0c299b90247917d4d4b7c1790557f6262663062616461643239643439646338383735303462616366626239303562600b55662386f26fc10000600c556100f7565b600280546001600160a01b0319166001600160a01b0392909216919091179055565b61125a806101066000396000f3fe608060405234801561001057600080fd5b50600436106100885760003560e01c80639e10aa241161005b5780639e10aa24146100f1578063a035b1fe14610106578063b0b675d91461010e578063ffe96ed61461012157610088565b806323814fc51461008d5780633c0051fb146100b65780634357855e146100c9578063524f3889146100de575b600080fd5b6100a061009b366004610c64565b610129565b6040516100ad9190610f47565b60405180910390f35b6100a06100c4366004610c64565b610146565b6100dc6100d7366004610c43565b61016e565b005b6100a06100ec366004610c64565b610220565b6100f961040b565b6040516100ad9190610f50565b6100a0610499565b6100a061011c366004610c64565b61049f565b6100a06104bc565b805160208183018101805160078252928201919093012091525481565b60006008826040516101589190610d53565b9081526020016040518091039020549050919050565b60008281526005602052604090205482906001600160a01b031633146101af5760405162461bcd60e51b81526004016101a690610fa6565b60405180910390fd5b60008181526005602052604080822080546001600160a01b03191690555182917f7cc135e0cebb02c3480ae5d74d377283180a2601f8f644edf7987b009316c63a91a281600681905550816008600960405161020b9190610d6f565b90815260405190819003602001902055505050565b8051600090610236906009906020850190610b3b565b50600061024d600b5430634357855e60e01b6104c2565b90506000836040516020016102629190610e0a565b60408051601f19818403018152828201909152600382526219d95d60ea1b60208301529150610293908390836104e9565b60408051600380825260808201909252600091816020015b60608152602001906001900390816102ab5790505090506040518060400160405280601381526020017254696d652053657269657320284461696c792960681b8152508160008151811061030f57634e487b7160e01b600052603260045260246000fd5b60200260200101819052506040518060400160405280600a815260200169323032312d31322d303960b01b8152508160018151811061035e57634e487b7160e01b600052603260045260246000fd5b602002602001018190525060405180604001604052806008815260200167342e20636c6f736560c01b815250816002815181106103ab57634e487b7160e01b600052603260045260246000fd5b60200260200101819052506103e7604051806040016040528060048152602001630e0c2e8d60e31b815250828561050c9092919063ffffffff16565b600a54600c54610402916001600160a01b0316908590610592565b95945050505050565b6009805461041890611188565b80601f016020809104026020016040519081016040528092919081815260200182805461044490611188565b80156104915780601f1061046657610100808354040283529160200191610491565b820191906000526020600020905b81548152906001019060200180831161047457829003601f168201915b505050505081565b60065481565b805160208183018101805160088252928201919093012091525481565b60115481565b6104ca610bbf565b6104d2610bbf565b6104de818686866105b1565b9150505b9392505050565b60808301516104f890836105ee565b608083015161050790826105ee565b505050565b608083015161051b90836105ee565b6105288360800151610605565b60005b81518110156105845761057282828151811061055757634e487b7160e01b600052603260045260246000fd5b602002602001015185608001516105ee90919063ffffffff16565b8061057c816111bd565b91505061052b565b506105078360800151610613565b60006105a984848460016320214ca360e11b61061e565b949350505050565b6105b9610bbf565b6105c985608001516101006107d9565b50509183526001600160a01b031660208301526001600160e01b031916604082015290565b6105fb8260038351610837565b6105078282610911565b61061081600461092b565b50565b61061081600761092b565b600030600454604051602001610635929190610d31565b60408051808303601f19018152918152815160209283012060045460608901526000818152600590935281832080546001600160a01b0319166001600160a01b038b16179055905190925082917fb5e6e01e79f91267dc17b4e6314d5d4d03593d2ceee0fbb452b750bd70ea5af991a2600082600080886000015189602001518a604001518b606001518a8d60800151600001516040516024016106e0989796959493929190610eb8565b60408051601f198184030181529181526020820180516001600160e01b03166001600160e01b0319909416939093179092526002549151630200057560e51b81529092506001600160a01b0390911690634000aea090610748908a9089908690600401610f20565b602060405180830381600087803b15801561076257600080fd5b505af1158015610776573d6000803e3d6000fd5b505050506040513d601f19601f8201168201806040525081019061079a9190610c23565b6107b65760405162461bcd60e51b81526004016101a690610f63565b6001600460008282546107c99190610ffa565b9091555091979650505050505050565b6107e1610bf4565b6107ec6020836111d8565b15610814576107fc6020836111d8565b610807906020611145565b6108119083610ffa565b91505b506020808301829052604080518085526000815283019091019052815b92915050565b60178111610858576108528360e0600585901b16831761093c565b50610507565b60ff811161088257610875836018611fe0600586901b161761093c565b5061085283826001610954565b61ffff81116108ad576108a0836019611fe0600586901b161761093c565b5061085283826002610954565b63ffffffff81116108da576108cd83601a611fe0600586901b161761093c565b5061085283826004610954565b67ffffffffffffffff8111610507576108fe83601b611fe0600586901b161761093c565b5061090b83826008610954565b50505050565b610919610bf4565b6104e28384600001515184855161096d565b61050782601f611fe0600585901b16175b610944610bf4565b6104e28384600001515184610a4a565b61095c610bf4565b6105a9848560000151518585610a99565b610975610bf4565b825182111561098357600080fd5b60208501516109928386610ffa565b11156109c5576109c5856109b5876020015187866109b09190610ffa565b610b0d565b6109c0906002611126565b610b24565b6000808651805187602083010193508088870111156109e45787860182525b505050602084015b60208410610a245780518252610a03602083610ffa565b9150610a10602082610ffa565b9050610a1d602085611145565b93506109ec565b51815160001960208690036101000a019081169019919091161790525083949350505050565b610a52610bf4565b83602001518310610a7257610a7284856020015160026109c09190611126565b835180516020858301018481535080851415610a8f576001810182525b5093949350505050565b610aa1610bf4565b6020850151610ab08584610ffa565b1115610ac457610ac4856109b58685610ffa565b60006001610ad484610100611058565b610ade9190611145565b9050855183868201018583198251161781525080518487011115610b025783860181525b509495945050505050565b600081831115610b1e575081610831565b50919050565b8151610b3083836107d9565b5061090b8382610911565b828054610b4790611188565b90600052602060002090601f016020900481019282610b695760008555610baf565b82601f10610b8257805160ff1916838001178555610baf565b82800160010185558215610baf579182015b82811115610baf578251825591602001919060010190610b94565b50610bbb929150610c0e565b5090565b6040805160a081018252600080825260208201819052918101829052606081019190915260808101610bef610bf4565b905290565b604051806040016040528060608152602001600081525090565b5b80821115610bbb5760008155600101610c0f565b600060208284031215610c34578081fd5b815180151581146104e2578182fd5b60008060408385031215610c55578081fd5b50508035926020909101359150565b60006020808385031215610c76578182fd5b823567ffffffffffffffff80821115610c8d578384fd5b818501915085601f830112610ca0578384fd5b813581811115610cb257610cb261120e565b604051601f8201601f1916810185018381118282101715610cd557610cd561120e565b6040528181528382018501881015610ceb578586fd5b818585018683013790810190930193909352509392505050565b60008151808452610d1d81602086016020860161115c565b601f01601f19169290920160200192915050565b60609290921b6bffffffffffffffffffffffff19168252601482015260340190565b60008251610d6581846020870161115c565b9190910192915050565b8154600090819060028104600180831680610d8b57607f831692505b6020808410821415610dab57634e487b7160e01b87526022600452602487fd5b818015610dbf5760018114610dd057610dfc565b60ff19861689528489019650610dfc565b610dd98a610fee565b885b86811015610df45781548b820152908501908301610ddb565b505084890196505b509498975050505050505050565b60007f68747470733a2f2f7777772e616c70686176616e746167652e636f2f7175657282527f793f66756e6374696f6e3d54494d455f5345524945535f4441494c592673796d602083015263626f6c3d60e01b60408301528251610e7581604485016020870161115c565b7f26696e74657276616c3d356d696e266170696b65793d52493055475032555935604493909101928301525065514754374f4d60d01b6064820152606a01919050565b6001600160a01b0389811682526020820189905260408201889052861660608201526001600160e01b03198516608082015260a0810184905260c0810183905261010060e08201819052600090610f1183820185610d05565b9b9a5050505050505050505050565b600060018060a01b0385168252836020830152606060408301526104026060830184610d05565b90815260200190565b6000602082526104e26020830184610d05565b60208082526023908201527f756e61626c6520746f207472616e73666572416e6443616c6c20746f206f7261604082015262636c6560e81b606082015260800190565b60208082526028908201527f536f75726365206d75737420626520746865206f7261636c65206f6620746865604082015267081c995c5d595cdd60c21b606082015260800190565b60009081526020902090565b6000821982111561100d5761100d6111f8565b500190565b80825b6001808611611024575061104f565b818704821115611036576110366111f8565b8086161561104357918102915b9490941c938002611015565b94509492505050565b60006104e26000198484600082611071575060016104e2565b8161107e575060006104e2565b8160018114611094576002811461109e576110cb565b60019150506104e2565b60ff8411156110af576110af6111f8565b6001841b9150848211156110c5576110c56111f8565b506104e2565b5060208310610133831016604e8410600b84101617156110fe575081810a838111156110f9576110f96111f8565b6104e2565b61110b8484846001611012565b80860482111561111d5761111d6111f8565b02949350505050565b6000816000190483118215151615611140576111406111f8565b500290565b600082821015611157576111576111f8565b500390565b60005b8381101561117757818101518382015260200161115f565b8381111561090b5750506000910152565b60028104600182168061119c57607f821691505b60208210811415610b1e57634e487b7160e01b600052602260045260246000fd5b60006000198214156111d1576111d16111f8565b5060010190565b6000826111f357634e487b7160e01b81526012600452602481fd5b500690565b634e487b7160e01b600052601160045260246000fd5b634e487b7160e01b600052604160045260246000fdfea264697066735822122045b9a7b789ded6661e12d2c943fa3c0e31e7d425c6a6604dbb19811b5ed55d6264736f6c63430008000033",
  "immutableReferences": {},
  "source": "// SPDX-License-Identifier: MIT\npragma solidity >=0.8.0;\n\n// import \"./matic_usdt.sol\";\n// import \"./usdt_inr.sol\";\nimport \"@chainlink/contracts/src/v0.8/ChainlinkClient.sol\";\n\ncontract Price is ChainlinkClient {\n    using Chainlink for Chainlink.Request;\n    uint256 public price;\n    mapping(string => uint256) public map;\n    mapping(string => uint256) public priceMap;\n    string public ssymbol;\n    event mtouevent(uint256 indexed value1);\n    event utoievent(uint256 indexed value1);\n    event maticevent(uint256 indexed value1);\n    event priceevent(uint256 indexed value1);\n    address private oracle;\n    bytes32 private jobId;\n    uint256 private fee;\n    uint256 private mToU;\n    uint256 private UToI;\n    address private addressUsdtToInr = 0x49B488255c8b15B29F4382d5F64235E9ff78fA0D;\n    address private addressMaticToUsdt = 0x527Ab77B8e1f7083F2ff01a8f57B235Fdd96241f;\n    uint256 public finalMatic;\n    constructor() {\n        setChainlinkToken(0x326C977E6efc84E512bB9C30f76E30c160eD06FB);\n        oracle = 0xc8D925525CA8759812d0c299B90247917d4d4b7C;\n        jobId = \"bbf0badad29d49dc887504bacfbb905b\";\n        fee = 0.01 * 10 ** 18;\n\n        \n    }\n\n    function readPrice(string memory symbol) public view returns(uint256) {\n        return priceMap[symbol];\n    }\n\n\n    function getPrice(string memory symbol) public returns (bytes32 requestId) \n    {\n        ssymbol = symbol;\n        Chainlink.Request memory request = buildChainlinkRequest(jobId, address(this), this.fulfill.selector); \n        string memory url = string(abi.encodePacked(\"https://www.alphavantage.co/query?function=TIME_SERIES_DAILY&symbol=\",symbol, \"&interval=5min&apikey=RI0UGP2UY5QGT7OM\"));\n        request.add(\"get\", url);\n        // request.add(\"authorization\",\"bearer h5sStYWrcnjZ4-k5m8pTlQ-cUpVWj6qlEO8sAJWvJPYw9E-NARMNVlPWfA3QKra1HY5tWRf6rQh8y8ywmF_dYDT0TAJawo4P_cGykjrBn4xBPlRcf6r50xW6uOkZk1ldNPooq6wV-9DSz_3L97qxjKI-ZC6-MbDcmX5ME95iRkQtH6VbttGhsMXJhS4dDfemCF71oYEYv3pDAAvyzRAfuA_Scsx3IQOPHKLZbOFcn7293i0ET5NoJiKuTwRQTMCuUtD4Mq_DXxywpvEA2V7Vlw\");\n        \n        string[] memory path = new string[](3);\n        path[0] = \"Time Series (Daily)\";\n        path[1] = \"2021-12-09\";\n        path[2] = \"4. close\";\n        request.addStringArray(\"path\", path);\n        \n        return sendChainlinkRequestTo(oracle, request, fee);\n        \n    }\n\n    function fulfill(bytes32 _requestId, uint256 _price) public recordChainlinkFulfillment(_requestId)\n    {\n        price = _price;\n        priceMap[ssymbol] = _price;\n    }\n\n    // function getMaticToUsdt() public returns(bool){\n    //     IMaticToUsdt(addressMaticToUsdt).getPrice();\n    //     return true;\n    // }\n\n    // function readMaticToUsdt() public view returns(uint256){\n    //     return IMaticToUsdt(addressMaticToUsdt).readPrice();\n    // }\n\n    // function getUsdtToInr() public returns(bool){\n    //     IUsdtToInr(addressUsdtToInr).getPrice();\n    //     return true;\n    // }\n\n    // function readUsdtToInr() public view returns(uint256){\n    //     return IUsdtToInr(addressUsdtToInr).readPrice();\n    // }\n\n    // function updatePrice(string memory symbol) public returns(uint256){\n    //     // IMaticToUsdt(addressMaticToUsdt).getPrice(); \n    //     // IUsdtToInr(addressUsdtToInr).getPrice();\n    //     mToU = IMaticToUsdt(addressMaticToUsdt).readPrice();\n    //     emit mtouevent(mToU); // log the current value\n    //     UToI = IUsdtToInr(addressUsdtToInr).readPrice();\n    //     emit utoievent(UToI); // log the current value\n    //     getPrice(symbol);\n    //     emit priceevent(price);\n    //     // require(price == 0,\"Price is zero!\");\n    //     // require(mToU == 0,\"mToU is zero\");\n    //     // require(UToI == 0,\"UToI is zero\");\n    //     finalMatic = ((price/UToI)/mToU)*100000;\n    //     emit maticevent(finalMatic);\n    //     map[symbol] = ((price/UToI)/mToU)*100000;\n    //     return (((price/UToI)/mToU)*100000);\n    // }\n    // function readUpdatedprice(string memory symbol) public view returns (uint256){\n    //     return map[symbol];\n    // }\n\n}",
  "sourcePath": "/home/radhika/buildIt/trial-2/contracts/Price.sol",
  "compiler": {
    "name": "solc",
    "version": "0.8.0+commit.c7dfd78e.Emscripten.clang"
  },
  "schemaVersion": "3.4.3",
  "updatedAt": "2021-12-11T04:50:48.106Z",
  "devdoc": {
    "kind": "dev",
    "methods": {},
    "version": 1
  },
  "userdoc": {
    "kind": "user",
    "methods": {},
    "version": 1
  }
}