{
  "contractName": "Token",
  "abi": [
    {
      "inputs": [
        {
          "internalType": "string",
          "name": "name",
          "type": "string"
        },
        {
          "internalType": "string",
          "name": "symbol",
          "type": "string"
        },
        {
          "internalType": "address",
          "name": "mintTo",
          "type": "address"
        },
        {
          "internalType": "uint256",
          "name": "supply",
          "type": "uint256"
        }
      ],
      "stateMutability": "nonpayable",
      "type": "constructor"
    },
    {
      "anonymous": false,
      "inputs": [
        {
          "indexed": true,
          "internalType": "address",
          "name": "owner",
          "type": "address"
        },
        {
          "indexed": true,
          "internalType": "address",
          "name": "spender",
          "type": "address"
        },
        {
          "indexed": false,
          "internalType": "uint256",
          "name": "value",
          "type": "uint256"
        }
      ],
      "name": "Approval",
      "type": "event"
    },
    {
      "anonymous": false,
      "inputs": [
        {
          "indexed": true,
          "internalType": "address",
          "name": "from",
          "type": "address"
        },
        {
          "indexed": true,
          "internalType": "address",
          "name": "to",
          "type": "address"
        },
        {
          "indexed": false,
          "internalType": "uint256",
          "name": "value",
          "type": "uint256"
        }
      ],
      "name": "Transfer",
      "type": "event"
    },
    {
      "inputs": [
        {
          "internalType": "address",
          "name": "owner",
          "type": "address"
        },
        {
          "internalType": "address",
          "name": "spender",
          "type": "address"
        }
      ],
      "name": "allowance",
      "outputs": [
        {
          "internalType": "uint256",
          "name": "",
          "type": "uint256"
        }
      ],
      "stateMutability": "view",
      "type": "function"
    },
    {
      "inputs": [
        {
          "internalType": "address",
          "name": "spender",
          "type": "address"
        },
        {
          "internalType": "uint256",
          "name": "amount",
          "type": "uint256"
        }
      ],
      "name": "approve",
      "outputs": [
        {
          "internalType": "bool",
          "name": "",
          "type": "bool"
        }
      ],
      "stateMutability": "nonpayable",
      "type": "function"
    },
    {
      "inputs": [
        {
          "internalType": "address",
          "name": "account",
          "type": "address"
        }
      ],
      "name": "balanceOf",
      "outputs": [
        {
          "internalType": "uint256",
          "name": "",
          "type": "uint256"
        }
      ],
      "stateMutability": "view",
      "type": "function"
    },
    {
      "inputs": [],
      "name": "decimals",
      "outputs": [
        {
          "internalType": "uint8",
          "name": "",
          "type": "uint8"
        }
      ],
      "stateMutability": "view",
      "type": "function"
    },
    {
      "inputs": [
        {
          "internalType": "address",
          "name": "spender",
          "type": "address"
        },
        {
          "internalType": "uint256",
          "name": "subtractedValue",
          "type": "uint256"
        }
      ],
      "name": "decreaseAllowance",
      "outputs": [
        {
          "internalType": "bool",
          "name": "",
          "type": "bool"
        }
      ],
      "stateMutability": "nonpayable",
      "type": "function"
    },
    {
      "inputs": [
        {
          "internalType": "address",
          "name": "spender",
          "type": "address"
        },
        {
          "internalType": "uint256",
          "name": "addedValue",
          "type": "uint256"
        }
      ],
      "name": "increaseAllowance",
      "outputs": [
        {
          "internalType": "bool",
          "name": "",
          "type": "bool"
        }
      ],
      "stateMutability": "nonpayable",
      "type": "function"
    },
    {
      "inputs": [],
      "name": "name",
      "outputs": [
        {
          "internalType": "string",
          "name": "",
          "type": "string"
        }
      ],
      "stateMutability": "view",
      "type": "function"
    },
    {
      "inputs": [],
      "name": "symbol",
      "outputs": [
        {
          "internalType": "string",
          "name": "",
          "type": "string"
        }
      ],
      "stateMutability": "view",
      "type": "function"
    },
    {
      "inputs": [],
      "name": "totalSupply",
      "outputs": [
        {
          "internalType": "uint256",
          "name": "",
          "type": "uint256"
        }
      ],
      "stateMutability": "view",
      "type": "function"
    },
    {
      "inputs": [
        {
          "internalType": "address",
          "name": "recipient",
          "type": "address"
        },
        {
          "internalType": "uint256",
          "name": "amount",
          "type": "uint256"
        }
      ],
      "name": "transfer",
      "outputs": [
        {
          "internalType": "bool",
          "name": "",
          "type": "bool"
        }
      ],
      "stateMutability": "nonpayable",
      "type": "function"
    },
    {
      "inputs": [
        {
          "internalType": "address",
          "name": "sender",
          "type": "address"
        },
        {
          "internalType": "address",
          "name": "recipient",
          "type": "address"
        },
        {
          "internalType": "uint256",
          "name": "amount",
          "type": "uint256"
        }
      ],
      "name": "transferFrom",
      "outputs": [
        {
          "internalType": "bool",
          "name": "",
          "type": "bool"
        }
      ],
      "stateMutability": "nonpayable",
      "type": "function"
    },
    {
      "inputs": [
        {
          "internalType": "address",
          "name": "mintTo",
          "type": "address"
        },
        {
          "internalType": "uint256",
          "name": "supply",
          "type": "uint256"
        }
      ],
      "name": "appendToken",
      "outputs": [
        {
          "internalType": "bool",
          "name": "",
          "type": "bool"
        }
      ],
      "stateMutability": "nonpayable",
      "type": "function"
    }
  ],
  "bytecode": "0x60806040523480156200001157600080fd5b5060405162000efb38038062000efb8339810160408190526200003491620002ba565b8351849084906200004d90600390602085019062000169565b5080516200006390600490602084019062000169565b5050506200007882826200008260201b60201c565b5050505062000401565b6001600160a01b038216620000b45760405162461bcd60e51b8152600401620000ab9062000349565b60405180910390fd5b620000c26000838362000164565b8060026000828254620000d6919062000389565b90915550506001600160a01b038216600090815260208190526040812080548392906200010590849062000389565b90915550506040516001600160a01b038316906000907fddf252ad1be2c89b69c2b068fc378daa952ba7f163c4a11628f55a4df523b3ef906200014a90859062000380565b60405180910390a3620001606000838362000164565b5050565b505050565b8280546200017790620003ae565b90600052602060002090601f0160209004810192826200019b5760008555620001e6565b82601f10620001b657805160ff1916838001178555620001e6565b82800160010185558215620001e6579182015b82811115620001e6578251825591602001919060010190620001c9565b50620001f4929150620001f8565b5090565b5b80821115620001f45760008155600101620001f9565b600082601f83011262000220578081fd5b81516001600160401b03808211156200023d576200023d620003eb565b6040516020601f8401601f1916820181018381118382101715620002655762000265620003eb565b60405283825285840181018710156200027c578485fd5b8492505b838310156200029f578583018101518284018201529182019162000280565b83831115620002b057848185840101525b5095945050505050565b60008060008060808587031215620002d0578384fd5b84516001600160401b0380821115620002e7578586fd5b620002f5888389016200020f565b955060208701519150808211156200030b578485fd5b506200031a878288016200020f565b604087015190945090506001600160a01b038116811462000339578283fd5b6060959095015193969295505050565b6020808252601f908201527f45524332303a206d696e7420746f20746865207a65726f206164647265737300604082015260600190565b90815260200190565b60008219821115620003a957634e487b7160e01b81526011600452602481fd5b500190565b600281046001821680620003c357607f821691505b60208210811415620003e557634e487b7160e01b600052602260045260246000fd5b50919050565b634e487b7160e01b600052604160045260246000fd5b610aea80620004116000396000f3fe608060405234801561001057600080fd5b50600436106100b45760003560e01c806370a082311161007157806370a082311461014757806395d89b411461015a57806398afd00f14610162578063a457c2d714610175578063a9059cbb14610188578063dd62ed3e1461019b576100b4565b806306fdde03146100b9578063095ea7b3146100d757806318160ddd146100f757806323b872dd1461010c578063313ce5671461011f5780633950935114610134575b600080fd5b6100c16101ae565b6040516100ce91906107d3565b60405180910390f35b6100ea6100e536600461079f565b610240565b6040516100ce91906107c8565b6100ff61025d565b6040516100ce9190610a3e565b6100ea61011a366004610764565b610263565b6101276102fc565b6040516100ce9190610a47565b6100ea61014236600461079f565b610301565b6100ff610155366004610711565b610355565b6100c1610374565b6100ea61017036600461079f565b610383565b6100ea61018336600461079f565b61038f565b6100ea61019636600461079f565b610408565b6100ff6101a9366004610732565b61041c565b6060600380546101bd90610a79565b80601f01602080910402602001604051908101604052809291908181526020018280546101e990610a79565b80156102365780601f1061020b57610100808354040283529160200191610236565b820191906000526020600020905b81548152906001019060200180831161021957829003601f168201915b5050505050905090565b600061025461024d610447565b848461044b565b50600192915050565b60025490565b60006102708484846104ff565b6001600160a01b038416600090815260016020526040812081610291610447565b6001600160a01b03166001600160a01b03168152602001908152602001600020549050828110156102dd5760405162461bcd60e51b81526004016102d4906108f1565b60405180910390fd5b6102f1856102e9610447565b85840361044b565b506001949350505050565b601290565b600061025461030e610447565b84846001600061031c610447565b6001600160a01b03908116825260208083019390935260409182016000908120918b16815292529020546103509190610a55565b61044b565b6001600160a01b0381166000908152602081905260409020545b919050565b6060600480546101bd90610a79565b60006102548383610629565b6000806001600061039e610447565b6001600160a01b03908116825260208083019390935260409182016000908120918816815292529020549050828110156103ea5760405162461bcd60e51b81526004016102d4906109c2565b6103fe6103f5610447565b8585840361044b565b5060019392505050565b6000610254610415610447565b84846104ff565b6001600160a01b03918216600090815260016020908152604080832093909416825291909152205490565b3390565b6001600160a01b0383166104715760405162461bcd60e51b81526004016102d49061097e565b6001600160a01b0382166104975760405162461bcd60e51b81526004016102d490610869565b6001600160a01b0380841660008181526001602090815260408083209487168084529490915290819020849055517f8c5be1e5ebec7d5bd14f71427d1e84f3dd0314c0f7b2291e5b200ac8c7c3b925906104f2908590610a3e565b60405180910390a3505050565b6001600160a01b0383166105255760405162461bcd60e51b81526004016102d490610939565b6001600160a01b03821661054b5760405162461bcd60e51b81526004016102d490610826565b6105568383836106f5565b6001600160a01b0383166000908152602081905260409020548181101561058f5760405162461bcd60e51b81526004016102d4906108ab565b6001600160a01b038085166000908152602081905260408082208585039055918516815290812080548492906105c6908490610a55565b92505081905550826001600160a01b0316846001600160a01b03167fddf252ad1be2c89b69c2b068fc378daa952ba7f163c4a11628f55a4df523b3ef846040516106109190610a3e565b60405180910390a36106238484846106f5565b50505050565b6001600160a01b03821661064f5760405162461bcd60e51b81526004016102d490610a07565b61065b600083836106f5565b806002600082825461066d9190610a55565b90915550506001600160a01b0382166000908152602081905260408120805483929061069a908490610a55565b90915550506040516001600160a01b038316906000907fddf252ad1be2c89b69c2b068fc378daa952ba7f163c4a11628f55a4df523b3ef906106dd908590610a3e565b60405180910390a36106f1600083836106f5565b5050565b505050565b80356001600160a01b038116811461036f57600080fd5b600060208284031215610722578081fd5b61072b826106fa565b9392505050565b60008060408385031215610744578081fd5b61074d836106fa565b915061075b602084016106fa565b90509250929050565b600080600060608486031215610778578081fd5b610781846106fa565b925061078f602085016106fa565b9150604084013590509250925092565b600080604083850312156107b1578182fd5b6107ba836106fa565b946020939093013593505050565b901515815260200190565b6000602080835283518082850152825b818110156107ff578581018301518582016040015282016107e3565b818111156108105783604083870101525b50601f01601f1916929092016040019392505050565b60208082526023908201527f45524332303a207472616e7366657220746f20746865207a65726f206164647260408201526265737360e81b606082015260800190565b60208082526022908201527f45524332303a20617070726f766520746f20746865207a65726f206164647265604082015261737360f01b606082015260800190565b60208082526026908201527f45524332303a207472616e7366657220616d6f756e7420657863656564732062604082015265616c616e636560d01b606082015260800190565b60208082526028908201527f45524332303a207472616e7366657220616d6f756e74206578636565647320616040820152676c6c6f77616e636560c01b606082015260800190565b60208082526025908201527f45524332303a207472616e736665722066726f6d20746865207a65726f206164604082015264647265737360d81b606082015260800190565b60208082526024908201527f45524332303a20617070726f76652066726f6d20746865207a65726f206164646040820152637265737360e01b606082015260800190565b60208082526025908201527f45524332303a2064656372656173656420616c6c6f77616e63652062656c6f77604082015264207a65726f60d81b606082015260800190565b6020808252601f908201527f45524332303a206d696e7420746f20746865207a65726f206164647265737300604082015260600190565b90815260200190565b60ff91909116815260200190565b60008219821115610a7457634e487b7160e01b81526011600452602481fd5b500190565b600281046001821680610a8d57607f821691505b60208210811415610aae57634e487b7160e01b600052602260045260246000fd5b5091905056fea2646970667358221220c910a0933cd8fe87d16946c8287425092fc60c2668c3cb9ed21d0aeeaacbb00364736f6c63430008000033",
  "immutableReferences": {},
  "source": "// SPDX-License-Identifier: MIT\npragma solidity >=0.8.0;\n\nimport \"@openzeppelin/contracts/token/ERC20/ERC20.sol\";\n\ncontract Token is ERC20 {\n\n    // @param name The name of the token\n    // @param symbol The symbol of the token\n    // @param mintTo The address that the initial supply should be sent to\n    // @param supply The totalSupply of the token\n    constructor(\n        string memory name,\n        string memory symbol,\n        address mintTo,\n        uint256 supply\n    ) ERC20(name, symbol) {\n        _mint(mintTo, supply);\n    } \n\n    function appendToken( address mintTo, uint256 supply) external returns(bool){\n        _mint(mintTo, supply);\n        return true;\n    }\n\n\n}",
  "sourcePath": "/home/radhika/buildIt/trial-2/contracts/Token.sol",
  "compiler": {
    "name": "solc",
    "version": "0.8.0+commit.c7dfd78e.Emscripten.clang"
  },
  "schemaVersion": "3.4.3",
  "updatedAt": "2021-12-11T09:01:31.718Z",
  "devdoc": {
    "kind": "dev",
    "methods": {
      "allowance(address,address)": {
        "details": "See {IERC20-allowance}."
      },
      "approve(address,uint256)": {
        "details": "See {IERC20-approve}. Requirements: - `spender` cannot be the zero address."
      },
      "balanceOf(address)": {
        "details": "See {IERC20-balanceOf}."
      },
      "decimals()": {
        "details": "Returns the number of decimals used to get its user representation. For example, if `decimals` equals `2`, a balance of `505` tokens should be displayed to a user as `5.05` (`505 / 10 ** 2`). Tokens usually opt for a value of 18, imitating the relationship between Ether and Wei. This is the value {ERC20} uses, unless this function is overridden; NOTE: This information is only used for _display_ purposes: it in no way affects any of the arithmetic of the contract, including {IERC20-balanceOf} and {IERC20-transfer}."
      },
      "decreaseAllowance(address,uint256)": {
        "details": "Atomically decreases the allowance granted to `spender` by the caller. This is an alternative to {approve} that can be used as a mitigation for problems described in {IERC20-approve}. Emits an {Approval} event indicating the updated allowance. Requirements: - `spender` cannot be the zero address. - `spender` must have allowance for the caller of at least `subtractedValue`."
      },
      "increaseAllowance(address,uint256)": {
        "details": "Atomically increases the allowance granted to `spender` by the caller. This is an alternative to {approve} that can be used as a mitigation for problems described in {IERC20-approve}. Emits an {Approval} event indicating the updated allowance. Requirements: - `spender` cannot be the zero address."
      },
      "name()": {
        "details": "Returns the name of the token."
      },
      "symbol()": {
        "details": "Returns the symbol of the token, usually a shorter version of the name."
      },
      "totalSupply()": {
        "details": "See {IERC20-totalSupply}."
      },
      "transfer(address,uint256)": {
        "details": "See {IERC20-transfer}. Requirements: - `recipient` cannot be the zero address. - the caller must have a balance of at least `amount`."
      },
      "transferFrom(address,address,uint256)": {
        "details": "See {IERC20-transferFrom}. Emits an {Approval} event indicating the updated allowance. This is not required by the EIP. See the note at the beginning of {ERC20}. Requirements: - `sender` and `recipient` cannot be the zero address. - `sender` must have a balance of at least `amount`. - the caller must have allowance for ``sender``'s tokens of at least `amount`."
      }
    },
    "version": 1
  },
  "userdoc": {
    "kind": "user",
    "methods": {},
    "version": 1
  }
}