{
  "contractName": "TokenFactory",
  "abi": [
    {
      "inputs": [
        {
          "internalType": "string",
          "name": "symbol",
          "type": "string"
        },
        {
          "internalType": "uint256",
          "name": "supply",
          "type": "uint256"
        }
      ],
      "name": "append",
      "outputs": [
        {
          "internalType": "bool",
          "name": "",
          "type": "bool"
        }
      ],
      "stateMutability": "nonpayable",
      "type": "function"
    },
    {
      "inputs": [
        {
          "internalType": "string",
          "name": "symbol",
          "type": "string"
        },
        {
          "internalType": "uint256",
          "name": "supply",
          "type": "uint256"
        },
        {
          "internalType": "address",
          "name": "addr",
          "type": "address"
        }
      ],
      "name": "burnToken",
      "outputs": [
        {
          "internalType": "bool",
          "name": "",
          "type": "bool"
        }
      ],
      "stateMutability": "nonpayable",
      "type": "function"
    },
    {
      "inputs": [
        {
          "internalType": "string",
          "name": "symbol",
          "type": "string"
        },
        {
          "internalType": "uint256",
          "name": "supply",
          "type": "uint256"
        },
        {
          "internalType": "address",
          "name": "addr",
          "type": "address"
        }
      ],
      "name": "buyToken",
      "outputs": [
        {
          "internalType": "bool",
          "name": "",
          "type": "bool"
        }
      ],
      "stateMutability": "payable",
      "type": "function"
    },
    {
      "inputs": [
        {
          "internalType": "string",
          "name": "name",
          "type": "string"
        },
        {
          "internalType": "string",
          "name": "symbol",
          "type": "string"
        },
        {
          "internalType": "uint256",
          "name": "supply",
          "type": "uint256"
        }
      ],
      "name": "createToken",
      "outputs": [
        {
          "internalType": "address",
          "name": "",
          "type": "address"
        }
      ],
      "stateMutability": "nonpayable",
      "type": "function"
    },
    {
      "inputs": [
        {
          "internalType": "address",
          "name": "addr",
          "type": "address"
        },
        {
          "internalType": "uint256",
          "name": "amount",
          "type": "uint256"
        }
      ],
      "name": "decCollateral",
      "outputs": [
        {
          "internalType": "bool",
          "name": "",
          "type": "bool"
        }
      ],
      "stateMutability": "nonpayable",
      "type": "function"
    },
    {
      "inputs": [
        {
          "internalType": "address",
          "name": "addr",
          "type": "address"
        },
        {
          "internalType": "uint256",
          "name": "amount",
          "type": "uint256"
        }
      ],
      "name": "incCollateral",
      "outputs": [
        {
          "internalType": "bool",
          "name": "",
          "type": "bool"
        }
      ],
      "stateMutability": "nonpayable",
      "type": "function"
    },
    {
      "inputs": [],
      "stateMutability": "nonpayable",
      "type": "constructor"
    },
    {
      "anonymous": false,
      "inputs": [
        {
          "indexed": true,
          "internalType": "address",
          "name": "previousOwner",
          "type": "address"
        },
        {
          "indexed": true,
          "internalType": "address",
          "name": "newOwner",
          "type": "address"
        }
      ],
      "name": "OwnershipTransferred",
      "type": "event"
    },
    {
      "inputs": [],
      "name": "renounceOwnership",
      "outputs": [],
      "stateMutability": "nonpayable",
      "type": "function"
    },
    {
      "anonymous": false,
      "inputs": [
        {
          "indexed": true,
          "internalType": "contract IERC20",
          "name": "token",
          "type": "address"
        },
        {
          "indexed": true,
          "internalType": "address",
          "name": "beneficiary",
          "type": "address"
        },
        {
          "indexed": false,
          "internalType": "uint256",
          "name": "balance",
          "type": "uint256"
        }
      ],
      "name": "SweepToken",
      "type": "event"
    },
    {
      "anonymous": false,
      "inputs": [
        {
          "indexed": true,
          "internalType": "address",
          "name": "tokenAddress",
          "type": "address"
        },
        {
          "indexed": false,
          "internalType": "uint256",
          "name": "startingSupply",
          "type": "uint256"
        }
      ],
      "name": "TokenCreated",
      "type": "event"
    },
    {
      "anonymous": false,
      "inputs": [
        {
          "indexed": true,
          "internalType": "address",
          "name": "oldBeneficiary",
          "type": "address"
        },
        {
          "indexed": true,
          "internalType": "address",
          "name": "beneficiary",
          "type": "address"
        }
      ],
      "name": "TransferBeneficiary",
      "type": "event"
    },
    {
      "anonymous": false,
      "inputs": [
        {
          "indexed": false,
          "internalType": "bytes32",
          "name": "",
          "type": "bytes32"
        }
      ],
      "name": "eve",
      "type": "event"
    },
    {
      "inputs": [
        {
          "internalType": "string",
          "name": "symbol",
          "type": "string"
        },
        {
          "internalType": "address",
          "name": "receiver",
          "type": "address"
        },
        {
          "internalType": "uint256",
          "name": "amount",
          "type": "uint256"
        }
      ],
      "name": "tokenTransfer",
      "outputs": [
        {
          "internalType": "bool",
          "name": "",
          "type": "bool"
        }
      ],
      "stateMutability": "nonpayable",
      "type": "function"
    },
    {
      "inputs": [
        {
          "internalType": "address",
          "name": "newOwner",
          "type": "address"
        }
      ],
      "name": "transferOwnership",
      "outputs": [],
      "stateMutability": "nonpayable",
      "type": "function"
    },
    {
      "inputs": [
        {
          "internalType": "uint256",
          "name": "",
          "type": "uint256"
        }
      ],
      "name": "allTokens",
      "outputs": [
        {
          "internalType": "address",
          "name": "",
          "type": "address"
        }
      ],
      "stateMutability": "view",
      "type": "function"
    },
    {
      "inputs": [
        {
          "internalType": "address",
          "name": "",
          "type": "address"
        },
        {
          "internalType": "uint256",
          "name": "",
          "type": "uint256"
        }
      ],
      "name": "balanceMap",
      "outputs": [
        {
          "internalType": "string",
          "name": "",
          "type": "string"
        }
      ],
      "stateMutability": "view",
      "type": "function"
    },
    {
      "inputs": [],
      "name": "beneficiary",
      "outputs": [
        {
          "internalType": "address",
          "name": "",
          "type": "address"
        }
      ],
      "stateMutability": "view",
      "type": "function"
    },
    {
      "inputs": [
        {
          "internalType": "address",
          "name": "",
          "type": "address"
        }
      ],
      "name": "collateralMap",
      "outputs": [
        {
          "internalType": "uint256",
          "name": "",
          "type": "uint256"
        }
      ],
      "stateMutability": "view",
      "type": "function"
    },
    {
      "inputs": [
        {
          "internalType": "address",
          "name": "addr",
          "type": "address"
        }
      ],
      "name": "getCollateral",
      "outputs": [
        {
          "internalType": "uint256",
          "name": "",
          "type": "uint256"
        }
      ],
      "stateMutability": "view",
      "type": "function"
    },
    {
      "inputs": [],
      "name": "owner",
      "outputs": [
        {
          "internalType": "address",
          "name": "",
          "type": "address"
        }
      ],
      "stateMutability": "view",
      "type": "function"
    },
    {
      "inputs": [
        {
          "internalType": "string",
          "name": "",
          "type": "string"
        }
      ],
      "name": "tokenMap",
      "outputs": [
        {
          "internalType": "contract Token",
          "name": "",
          "type": "address"
        }
      ],
      "stateMutability": "view",
      "type": "function"
    },
    {
      "inputs": [
        {
          "internalType": "string",
          "name": "symbol",
          "type": "string"
        },
        {
          "internalType": "address",
          "name": "addr",
          "type": "address"
        }
      ],
      "name": "viewBalance",
      "outputs": [
        {
          "internalType": "uint256",
          "name": "",
          "type": "uint256"
        }
      ],
      "stateMutability": "view",
      "type": "function"
    }
  ],
  "bytecode": "0x608060405234801561001057600080fd5b5061002161001c610038565b61003c565b600180546001600160a01b0319163317905561008c565b3390565b600080546001600160a01b038381166001600160a01b0319831681178455604051919092169283917f8be0079c531659141344cd1fd0a4f28419497f9722a3daafe3b4186f6b6457e09190a35050565b611f4b8061009b6000396000f3fe608060405260043610620000aa5760003560e01c8063634282af116200006d578063634282af1462000185578063715018a614620001aa5780638da5cb5b14620001c2578063dbb80e4214620001da578063f2fde38b1462000201578063fc0c546a146200022657620000aa565b806309be770714620000af5780630e014cf814620000de5780631be1956014620001125780631c31f710146200013957806338af3eed146200015e575b600080fd5b620000c6620000c036600462000c35565b6200023e565b604051620000d5919062000db2565b60405180910390f35b348015620000eb57600080fd5b5062000103620000fd36600462000b76565b6200034a565b604051620000d5919062000f5a565b3480156200011f57600080fd5b50620001376200013136600462000b35565b620003d6565b005b3480156200014657600080fd5b50620001376200015836600462000b35565b620004ca565b3480156200016b57600080fd5b50620001766200056d565b604051620000d5919062000d36565b3480156200019257600080fd5b5062000176620001a436600462000cb8565b6200057c565b348015620001b757600080fd5b5062000137620005a7565b348015620001cf57600080fd5b5062000176620005fb565b348015620001e757600080fd5b50620001f26200060a565b604051620000d5919062000d63565b3480156200020e57600080fd5b50620001376200022036600462000b35565b6200066e565b3480156200023357600080fd5b5062000176620006eb565b60008060048460405162000253919062000d18565b90815260408051918290036020018220546306fdde0360e01b835290516001600160a01b03909116916306fdde03916004808301926000929190829003018186803b158015620002a257600080fd5b505afa158015620002b7573d6000803e3d6000fd5b505050506040513d6000823e601f3d908101601f19168201604052620002e1919081019062000bb3565b60408051602080820190925260008152825191830191909120919250907fc5d2460186f7233c927e7db2dcc703c0e500b653ca82273b7bfad8045d85a4701415620003355762000333858686620006fa565b505b62000341858562000805565b50505092915050565b6040516370a0823160e01b81526000906001600160a01b038416906370a08231906200037b90859060040162000d36565b60206040518083038186803b1580156200039457600080fd5b505afa158015620003a9573d6000803e3d6000fd5b505050506040513d601f19601f82011682018060405250810190620003cf919062000cd1565b9392505050565b6040516370a0823160e01b81526000906001600160a01b038316906370a08231906200040790309060040162000d36565b60206040518083038186803b1580156200042057600080fd5b505afa15801562000435573d6000803e3d6000fd5b505050506040513d601f19601f820116820180604052508101906200045b919062000cd1565b6001549091506200047a906001600160a01b03848116911683620008b2565b6001546040516001600160a01b03918216918416907f6d25be279134f4ecaa4770aff0c3d916d9e7c5ef37b65ed95dbdba411f5d54d590620004be90859062000f5a565b60405180910390a35050565b620004d462000911565b6001600160a01b0316620004e7620005fb565b6001600160a01b031614620005195760405162461bcd60e51b8152600401620005109062000ea4565b60405180910390fd5b600180546001600160a01b038381166001600160a01b03198316179283905560405191811692169082907fa5f0aa8a2926f2317c53956ef9081a3b437d3ec4ee25c0e08c8e0db6225e2e0d90600090a35050565b6001546001600160a01b031681565b600281815481106200058d57600080fd5b6000918252602090912001546001600160a01b0316905081565b620005b162000911565b6001600160a01b0316620005c4620005fb565b6001600160a01b031614620005ed5760405162461bcd60e51b8152600401620005109062000ea4565b620005f9600062000915565b565b6000546001600160a01b031690565b606060028054806020026020016040519081016040528092919081815260200182805480156200066457602002820191906000526020600020905b81546001600160a01b0316815260019091019060200180831162000645575b5050505050905090565b6200067862000911565b6001600160a01b03166200068b620005fb565b6001600160a01b031614620006b45760405162461bcd60e51b8152600401620005109062000ea4565b6001600160a01b038116620006dd5760405162461bcd60e51b8152600401620005109062000e18565b620006e88162000915565b50565b6003546001600160a01b031681565b600080848433856040516200070f9062000b27565b6200071e949392919062000dd2565b604051809103906000f0801580156200073b573d6000803e3d6000fd5b5090508060048560405162000751919062000d18565b90815260405190819003602001812080546001600160a01b039384166001600160a01b031991821617909155600280546001810182556000919091527f405787fa12a823e0f2b7631cc41b3ba8828b3321ca811111fa75cd3aa3bb5ace0180549385169382168417905560038054909116831790557f1cef2b4ec7f129e441c961eb4fae22fd3131868db6be990c6f065f35b6b53cf390620007f590869062000f5a565b60405180910390a2949350505050565b600060048360405162000819919062000d18565b908152604051908190036020018120546398afd00f60e01b82526001600160a01b0316906398afd00f9062000855903390869060040162000d4a565b602060405180830381600087803b1580156200087057600080fd5b505af115801562000885573d6000803e3d6000fd5b505050506040513d601f19601f82011682018060405250810190620008ab919062000b54565b5092915050565b6200090c8363a9059cbb60e01b8484604051602401620008d492919062000d4a565b60408051601f198184030181529190526020810180516001600160e01b03166001600160e01b03199093169290921790915262000965565b505050565b3390565b600080546001600160a01b038381166001600160a01b0319831681178455604051919092169283917f8be0079c531659141344cd1fd0a4f28419497f9722a3daafe3b4186f6b6457e09190a35050565b6000620009bc826040518060400160405280602081526020017f5361666545524332303a206c6f772d6c6576656c2063616c6c206661696c6564815250856001600160a01b0316620009fc9092919063ffffffff16565b8051909150156200090c5780806020019051810190620009dd919062000b54565b6200090c5760405162461bcd60e51b8152600401620005109062000f10565b606062000a0d848460008562000a15565b949350505050565b60608247101562000a3a5760405162461bcd60e51b8152600401620005109062000e5e565b62000a458562000ae3565b62000a645760405162461bcd60e51b8152600401620005109062000ed9565b600080866001600160a01b0316858760405162000a82919062000d18565b60006040518083038185875af1925050503d806000811462000ac1576040519150601f19603f3d011682016040523d82523d6000602084013e62000ac6565b606091505b509150915062000ad882828662000ae9565b979650505050505050565b3b151590565b6060831562000afa575081620003cf565b82511562000b0b5782518084602001fd5b8160405162461bcd60e51b815260040162000510919062000dbd565b610efb806200101b83390190565b60006020828403121562000b47578081fd5b8135620003cf8162001004565b60006020828403121562000b66578081fd5b81518015158114620003cf578182fd5b6000806040838503121562000b89578081fd5b823562000b968162001004565b9150602083013562000ba88162001004565b809150509250929050565b60006020828403121562000bc5578081fd5b815167ffffffffffffffff81111562000bdc578182fd5b8201601f8101841362000bed578182fd5b805162000c0462000bfe8262000f90565b62000f63565b81815285602083850101111562000c19578384fd5b62000c2c82602083016020860162000fbb565b95945050505050565b6000806040838503121562000c48578182fd5b823567ffffffffffffffff81111562000c5f578283fd5b8301601f8101851362000c70578283fd5b803562000c8162000bfe8262000f90565b81815286602083850101111562000c96578485fd5b8160208401602083013790810160209081019490945295939092013593505050565b60006020828403121562000cca578081fd5b5035919050565b60006020828403121562000ce3578081fd5b5051919050565b6000815180845262000d0481602086016020860162000fbb565b601f01601f19169290920160200192915050565b6000825162000d2c81846020870162000fbb565b9190910192915050565b6001600160a01b0391909116815260200190565b6001600160a01b03929092168252602082015260400190565b6020808252825182820181905260009190848201906040850190845b8181101562000da65783516001600160a01b03168352928401929184019160010162000d7f565b50909695505050505050565b901515815260200190565b600060208252620003cf602083018462000cea565b60006080825262000de7608083018762000cea565b828103602084015262000dfb818762000cea565b6001600160a01b0395909516604084015250506060015292915050565b60208082526026908201527f4f776e61626c653a206e6577206f776e657220697320746865207a65726f206160408201526564647265737360d01b606082015260800190565b60208082526026908201527f416464726573733a20696e73756666696369656e742062616c616e636520666f6040820152651c8818d85b1b60d21b606082015260800190565b6020808252818101527f4f776e61626c653a2063616c6c6572206973206e6f7420746865206f776e6572604082015260600190565b6020808252601d908201527f416464726573733a2063616c6c20746f206e6f6e2d636f6e7472616374000000604082015260600190565b6020808252602a908201527f5361666545524332303a204552433230206f7065726174696f6e20646964206e6040820152691bdd081cdd58d8d9595960b21b606082015260800190565b90815260200190565b60405181810167ffffffffffffffff8111828210171562000f885762000f8862000fee565b604052919050565b600067ffffffffffffffff82111562000fad5762000fad62000fee565b50601f01601f191660200190565b60005b8381101562000fd857818101518382015260200162000fbe565b8381111562000fe8576000848401525b50505050565b634e487b7160e01b600052604160045260246000fd5b6001600160a01b0381168114620006e857600080fdfe60806040523480156200001157600080fd5b5060405162000efb38038062000efb8339810160408190526200003491620002ba565b8351849084906200004d90600390602085019062000169565b5080516200006390600490602084019062000169565b5050506200007882826200008260201b60201c565b5050505062000401565b6001600160a01b038216620000b45760405162461bcd60e51b8152600401620000ab9062000349565b60405180910390fd5b620000c26000838362000164565b8060026000828254620000d6919062000389565b90915550506001600160a01b038216600090815260208190526040812080548392906200010590849062000389565b90915550506040516001600160a01b038316906000907fddf252ad1be2c89b69c2b068fc378daa952ba7f163c4a11628f55a4df523b3ef906200014a90859062000380565b60405180910390a3620001606000838362000164565b5050565b505050565b8280546200017790620003ae565b90600052602060002090601f0160209004810192826200019b5760008555620001e6565b82601f10620001b657805160ff1916838001178555620001e6565b82800160010185558215620001e6579182015b82811115620001e6578251825591602001919060010190620001c9565b50620001f4929150620001f8565b5090565b5b80821115620001f45760008155600101620001f9565b600082601f83011262000220578081fd5b81516001600160401b03808211156200023d576200023d620003eb565b6040516020601f8401601f1916820181018381118382101715620002655762000265620003eb565b60405283825285840181018710156200027c578485fd5b8492505b838310156200029f578583018101518284018201529182019162000280565b83831115620002b057848185840101525b5095945050505050565b60008060008060808587031215620002d0578384fd5b84516001600160401b0380821115620002e7578586fd5b620002f5888389016200020f565b955060208701519150808211156200030b578485fd5b506200031a878288016200020f565b604087015190945090506001600160a01b038116811462000339578283fd5b6060959095015193969295505050565b6020808252601f908201527f45524332303a206d696e7420746f20746865207a65726f206164647265737300604082015260600190565b90815260200190565b60008219821115620003a957634e487b7160e01b81526011600452602481fd5b500190565b600281046001821680620003c357607f821691505b60208210811415620003e557634e487b7160e01b600052602260045260246000fd5b50919050565b634e487b7160e01b600052604160045260246000fd5b610aea80620004116000396000f3fe608060405234801561001057600080fd5b50600436106100b45760003560e01c806370a082311161007157806370a082311461014757806395d89b411461015a57806398afd00f14610162578063a457c2d714610175578063a9059cbb14610188578063dd62ed3e1461019b576100b4565b806306fdde03146100b9578063095ea7b3146100d757806318160ddd146100f757806323b872dd1461010c578063313ce5671461011f5780633950935114610134575b600080fd5b6100c16101ae565b6040516100ce91906107d3565b60405180910390f35b6100ea6100e536600461079f565b610240565b6040516100ce91906107c8565b6100ff61025d565b6040516100ce9190610a3e565b6100ea61011a366004610764565b610263565b6101276102fc565b6040516100ce9190610a47565b6100ea61014236600461079f565b610301565b6100ff610155366004610711565b610355565b6100c1610374565b6100ea61017036600461079f565b610383565b6100ea61018336600461079f565b61038f565b6100ea61019636600461079f565b610408565b6100ff6101a9366004610732565b61041c565b6060600380546101bd90610a79565b80601f01602080910402602001604051908101604052809291908181526020018280546101e990610a79565b80156102365780601f1061020b57610100808354040283529160200191610236565b820191906000526020600020905b81548152906001019060200180831161021957829003601f168201915b5050505050905090565b600061025461024d610447565b848461044b565b50600192915050565b60025490565b60006102708484846104ff565b6001600160a01b038416600090815260016020526040812081610291610447565b6001600160a01b03166001600160a01b03168152602001908152602001600020549050828110156102dd5760405162461bcd60e51b81526004016102d4906108f1565b60405180910390fd5b6102f1856102e9610447565b85840361044b565b506001949350505050565b601290565b600061025461030e610447565b84846001600061031c610447565b6001600160a01b03908116825260208083019390935260409182016000908120918b16815292529020546103509190610a55565b61044b565b6001600160a01b0381166000908152602081905260409020545b919050565b6060600480546101bd90610a79565b60006102548383610629565b6000806001600061039e610447565b6001600160a01b03908116825260208083019390935260409182016000908120918816815292529020549050828110156103ea5760405162461bcd60e51b81526004016102d4906109c2565b6103fe6103f5610447565b8585840361044b565b5060019392505050565b6000610254610415610447565b84846104ff565b6001600160a01b03918216600090815260016020908152604080832093909416825291909152205490565b3390565b6001600160a01b0383166104715760405162461bcd60e51b81526004016102d49061097e565b6001600160a01b0382166104975760405162461bcd60e51b81526004016102d490610869565b6001600160a01b0380841660008181526001602090815260408083209487168084529490915290819020849055517f8c5be1e5ebec7d5bd14f71427d1e84f3dd0314c0f7b2291e5b200ac8c7c3b925906104f2908590610a3e565b60405180910390a3505050565b6001600160a01b0383166105255760405162461bcd60e51b81526004016102d490610939565b6001600160a01b03821661054b5760405162461bcd60e51b81526004016102d490610826565b6105568383836106f5565b6001600160a01b0383166000908152602081905260409020548181101561058f5760405162461bcd60e51b81526004016102d4906108ab565b6001600160a01b038085166000908152602081905260408082208585039055918516815290812080548492906105c6908490610a55565b92505081905550826001600160a01b0316846001600160a01b03167fddf252ad1be2c89b69c2b068fc378daa952ba7f163c4a11628f55a4df523b3ef846040516106109190610a3e565b60405180910390a36106238484846106f5565b50505050565b6001600160a01b03821661064f5760405162461bcd60e51b81526004016102d490610a07565b61065b600083836106f5565b806002600082825461066d9190610a55565b90915550506001600160a01b0382166000908152602081905260408120805483929061069a908490610a55565b90915550506040516001600160a01b038316906000907fddf252ad1be2c89b69c2b068fc378daa952ba7f163c4a11628f55a4df523b3ef906106dd908590610a3e565b60405180910390a36106f1600083836106f5565b5050565b505050565b80356001600160a01b038116811461036f57600080fd5b600060208284031215610722578081fd5b61072b826106fa565b9392505050565b60008060408385031215610744578081fd5b61074d836106fa565b915061075b602084016106fa565b90509250929050565b600080600060608486031215610778578081fd5b610781846106fa565b925061078f602085016106fa565b9150604084013590509250925092565b600080604083850312156107b1578182fd5b6107ba836106fa565b946020939093013593505050565b901515815260200190565b6000602080835283518082850152825b818110156107ff578581018301518582016040015282016107e3565b818111156108105783604083870101525b50601f01601f1916929092016040019392505050565b60208082526023908201527f45524332303a207472616e7366657220746f20746865207a65726f206164647260408201526265737360e81b606082015260800190565b60208082526022908201527f45524332303a20617070726f766520746f20746865207a65726f206164647265604082015261737360f01b606082015260800190565b60208082526026908201527f45524332303a207472616e7366657220616d6f756e7420657863656564732062604082015265616c616e636560d01b606082015260800190565b60208082526028908201527f45524332303a207472616e7366657220616d6f756e74206578636565647320616040820152676c6c6f77616e636560c01b606082015260800190565b60208082526025908201527f45524332303a207472616e736665722066726f6d20746865207a65726f206164604082015264647265737360d81b606082015260800190565b60208082526024908201527f45524332303a20617070726f76652066726f6d20746865207a65726f206164646040820152637265737360e01b606082015260800190565b60208082526025908201527f45524332303a2064656372656173656420616c6c6f77616e63652062656c6f77604082015264207a65726f60d81b606082015260800190565b6020808252601f908201527f45524332303a206d696e7420746f20746865207a65726f206164647265737300604082015260600190565b90815260200190565b60ff91909116815260200190565b60008219821115610a7457634e487b7160e01b81526011600452602481fd5b500190565b600281046001821680610a8d57607f821691505b60208210811415610aae57634e487b7160e01b600052602260045260246000fd5b5091905056fea2646970667358221220c910a0933cd8fe87d16946c8287425092fc60c2668c3cb9ed21d0aeeaacbb00364736f6c63430008000033a2646970667358221220a129b5526f5d6e5f98615cf5ad7ce05680a452320a07b9fedfdb0d844fc410d664736f6c63430008000033",
  "immutableReferences": {},
  "source": "// SPDX-License-Identifier: MIT\npragma solidity >=0.8.0;\n\nimport \"./Token.sol\";\nimport \"@openzeppelin/contracts/token/ERC20/utils/SafeERC20.sol\";\nimport \"@openzeppelin/contracts/access/Ownable.sol\";\n\ncontract TokenFactory is Ownable {\n    using SafeERC20 for IERC20;\n\n    address public beneficiary;\n    address[] public allTokens;\n    Token public token;\n    mapping (string => Token) tokenMap;\n    event TokenCreated(address indexed tokenAddress, uint256 startingSupply);\n    event TransferBeneficiary(address indexed oldBeneficiary, address indexed beneficiary);\n    event SweepToken(IERC20 indexed token, address indexed beneficiary, uint256 balance);\n\n    // @dev On contract creation the beneficiary (and owner) are set to msg.sender\n    constructor() {\n        beneficiary = msg.sender;\n    }\n\n    // @notice Return the number of tokens created by this contract\n    function allTokensLength() external view returns (address[] memory) {\n        return allTokens;\n    }\n\n    // @notice Create a new ERC-20 contract\n    // @dev Tokens created have 18 decimals which means add 18 zeros the integer supply: 000000000000000000 \n    // @param name The name of the token\n    // @param symbol The symbol of the token\n    // @param supply The totalSupply of the token\n    function createToken(string memory name, string memory symbol, uint256 supply) internal returns (address) {\n        Token t = new Token(name, symbol, msg.sender, supply);\n        tokenMap[symbol] = t;\n        allTokens.push(address(t));\n        token = t;\n        emit TokenCreated(address(t), supply);\n        return address(t);\n    }\n\n    // @notice Change the beneficiary who recieves swept tokens\n    // @param newBeneficiary The address of the new beneficiary\n    function setBeneficiary(address newBeneficiary) external onlyOwner {\n        address oldBeneficiary = beneficiary;\n        beneficiary = newBeneficiary;\n        emit TransferBeneficiary(oldBeneficiary, beneficiary);\n    }\n\n    // @notice An external function to sweep ERC20 tokens locked in this contract.\n    // @dev Only the owner can call this function, but the tokens are transferred to the beneficiary address\n    // @param token The address of the ERC20 token to sweep\n    function sweepToken(IERC20 token) external {\n        uint256 balance = token.balanceOf(address(this));\n        token.safeTransfer(beneficiary, balance);\n        emit SweepToken(token, beneficiary, balance);\n    }\n\n    function viewBalance(IERC20 token, address addr) view external returns(uint256){\n        return token.balanceOf(addr);\n    }\n\n    function append(string memory symbol, uint256 supply) internal returns(bool){\n        tokenMap[symbol].appendToken(msg.sender,supply);\n    }\n\n    function buyToken(string memory symbol, uint256 supply) external payable returns(bool){\n        string memory s = tokenMap[symbol].name();\n        string memory empty = \"\";\n        // require(keccak256(bytes(s)) == keccak256(bytes(empty)), \"new token found!\");\n        if(keccak256(bytes(s)) == keccak256(bytes(empty))){\n            createToken(symbol, symbol, supply);\n        }\n        append(symbol, supply);\n\n    }\n\n}",
  "sourcePath": "/home/radhika/buildIt/trial-2/contracts/TokenFactory.sol",
  "compiler": {
    "name": "solc",
    "version": "0.8.0+commit.c7dfd78e.Emscripten.clang"
  },
  "schemaVersion": "3.4.3",
  "updatedAt": "2021-12-11T09:01:31.728Z",
  "devdoc": {
    "kind": "dev",
    "methods": {
      "owner()": {
        "details": "Returns the address of the current owner."
      },
      "renounceOwnership()": {
        "details": "Leaves the contract without owner. It will not be possible to call `onlyOwner` functions anymore. Can only be called by the current owner. NOTE: Renouncing ownership will leave the contract without an owner, thereby removing any functionality that is only available to the owner."
      },
      "transferOwnership(address)": {
        "details": "Transfers ownership of the contract to a new account (`newOwner`). Can only be called by the current owner."
      }
    },
    "version": 1
  },
  "userdoc": {
    "kind": "user",
    "methods": {},
    "version": 1
  }
}