{
  "contractName": "UsdtToInr",
  "abi": [
    {
      "inputs": [],
      "stateMutability": "nonpayable",
      "type": "constructor"
    },
    {
      "anonymous": false,
      "inputs": [
        {
          "indexed": true,
          "internalType": "bytes32",
          "name": "id",
          "type": "bytes32"
        }
      ],
      "name": "ChainlinkCancelled",
      "type": "event"
    },
    {
      "anonymous": false,
      "inputs": [
        {
          "indexed": true,
          "internalType": "bytes32",
          "name": "id",
          "type": "bytes32"
        }
      ],
      "name": "ChainlinkFulfilled",
      "type": "event"
    },
    {
      "anonymous": false,
      "inputs": [
        {
          "indexed": true,
          "internalType": "bytes32",
          "name": "id",
          "type": "bytes32"
        }
      ],
      "name": "ChainlinkRequested",
      "type": "event"
    },
    {
      "inputs": [],
      "name": "price",
      "outputs": [
        {
          "internalType": "uint256",
          "name": "",
          "type": "uint256"
        }
      ],
      "stateMutability": "view",
      "type": "function"
    },
    {
      "inputs": [],
      "name": "readPrice",
      "outputs": [
        {
          "internalType": "uint256",
          "name": "",
          "type": "uint256"
        }
      ],
      "stateMutability": "view",
      "type": "function"
    },
    {
      "inputs": [],
      "name": "getPrice",
      "outputs": [
        {
          "internalType": "bytes32",
          "name": "requestId",
          "type": "bytes32"
        }
      ],
      "stateMutability": "nonpayable",
      "type": "function"
    },
    {
      "inputs": [
        {
          "internalType": "bytes32",
          "name": "_requestId",
          "type": "bytes32"
        },
        {
          "internalType": "uint256",
          "name": "_price",
          "type": "uint256"
        }
      ],
      "name": "fulfill",
      "outputs": [],
      "stateMutability": "nonpayable",
      "type": "function"
    }
  ],
  "bytecode": "0x6080604052600160045534801561001557600080fd5b5061003373326c977e6efc84e512bb9c30f76e30c160ed06fb61008d565b600780546001600160a01b03191673c8d925525ca8759812d0c299b90247917d4d4b7c1790557f6262663062616461643239643439646338383735303462616366626239303562600855662386f26fc100006009556100af565b600280546001600160a01b0319166001600160a01b0392909216919091179055565b610dc4806100be6000396000f3fe608060405234801561001057600080fd5b506004361061004c5760003560e01c80634357855e146100515780637e91400f1461006657806398d5fdca14610084578063a035b1fe1461008c575b600080fd5b61006461005f3660046109a5565b610094565b005b61006e61011f565b60405161007b9190610acb565b60405180910390f35b61006e610125565b61006e6102b7565b60008281526005602052604090205482906001600160a01b031633146100d55760405162461bcd60e51b81526004016100cc90610b17565b60405180910390fd5b60008181526005602052604080822080546001600160a01b03191690555182917f7cc135e0cebb02c3480ae5d74d377283180a2601f8f644edf7987b009316c63a91a25060065550565b60065490565b60008061013c60085430634357855e60e01b6102bd565b905061017e6040518060400160405280600381526020016219d95d60ea1b8152506040518060a00160405280607c8152602001610d13607c91398391906102e4565b60408051600280825260608201909252600091816020015b60608152602001906001900390816101965790505090506040518060400160405280601f81526020017f5265616c74696d652043757272656e63792045786368616e67652052617465008152508160008151811061020457634e487b7160e01b600052603260045260246000fd5b60200260200101819052506040518060400160405280601081526020016f352e2045786368616e6765205261746560801b8152508160018151811061025957634e487b7160e01b600052603260045260246000fd5b6020026020010181905250610295604051806040016040528060048152602001630e0c2e8d60e31b81525082846103079092919063ffffffff16565b6007546009546102b0916001600160a01b031690849061038d565b9250505090565b60065481565b6102c5610936565b6102cd610936565b6102d9818686866103ac565b9150505b9392505050565b60808301516102f390836103e9565b608083015161030290826103e9565b505050565b608083015161031690836103e9565b6103238360800151610400565b60005b815181101561037f5761036d82828151811061035257634e487b7160e01b600052603260045260246000fd5b602002602001015185608001516103e990919063ffffffff16565b8061037781610cc1565b915050610326565b50610302836080015161040e565b60006103a484848460016320214ca360e11b610419565b949350505050565b6103b4610936565b6103c485608001516101006105d4565b50509183526001600160a01b031660208301526001600160e01b031916604082015290565b6103f68260038351610632565b610302828261070c565b61040b816004610726565b50565b61040b816007610726565b600030600454604051602001610430929190610a11565b60408051808303601f19018152918152815160209283012060045460608901526000818152600590935281832080546001600160a01b0319166001600160a01b038b16179055905190925082917fb5e6e01e79f91267dc17b4e6314d5d4d03593d2ceee0fbb452b750bd70ea5af991a2600082600080886000015189602001518a604001518b606001518a8d60800151600001516040516024016104db989796959493929190610a33565b60408051601f198184030181529181526020820180516001600160e01b03166001600160e01b0319909416939093179092526002549151630200057560e51b81529092506001600160a01b0390911690634000aea090610543908a9089908690600401610a9b565b602060405180830381600087803b15801561055d57600080fd5b505af1158015610571573d6000803e3d6000fd5b505050506040513d601f19601f820116820180604052508101906105959190610985565b6105b15760405162461bcd60e51b81526004016100cc90610ad4565b6001600460008282546105c49190610b5f565b9091555091979650505050505050565b6105dc61096b565b6105e7602083610cdc565b1561060f576105f7602083610cdc565b610602906020610caa565b61060c9083610b5f565b91505b506020808301829052604080518085526000815283019091019052815b92915050565b601781116106535761064d8360e0600585901b168317610737565b50610302565b60ff811161067d57610670836018611fe0600586901b1617610737565b5061064d8382600161074f565b61ffff81116106a85761069b836019611fe0600586901b1617610737565b5061064d8382600261074f565b63ffffffff81116106d5576106c883601a611fe0600586901b1617610737565b5061064d8382600461074f565b67ffffffffffffffff8111610302576106f983601b611fe0600586901b1617610737565b506107068382600861074f565b50505050565b61071461096b565b6102dd83846000015151848551610768565b61030282601f611fe0600585901b16175b61073f61096b565b6102dd8384600001515184610845565b61075761096b565b6103a4848560000151518585610894565b61077061096b565b825182111561077e57600080fd5b602085015161078d8386610b5f565b11156107c0576107c0856107b0876020015187866107ab9190610b5f565b610908565b6107bb906002610c8b565b61091f565b6000808651805187602083010193508088870111156107df5787860182525b505050602084015b6020841061081f57805182526107fe602083610b5f565b915061080b602082610b5f565b9050610818602085610caa565b93506107e7565b51815160001960208690036101000a019081169019919091161790525083949350505050565b61084d61096b565b8360200151831061086d5761086d84856020015160026107bb9190610c8b565b83518051602085830101848153508085141561088a576001810182525b5093949350505050565b61089c61096b565b60208501516108ab8584610b5f565b11156108bf576108bf856107b08685610b5f565b600060016108cf84610100610bbd565b6108d99190610caa565b90508551838682010185831982511617815250805184870111156108fd5783860181525b509495945050505050565b60008183111561091957508161062c565b50919050565b815161092b83836105d4565b50610706838261070c565b6040805160a08101825260008082526020820181905291810182905260608101919091526080810161096661096b565b905290565b604051806040016040528060608152602001600081525090565b600060208284031215610996578081fd5b815180151581146102dd578182fd5b600080604083850312156109b7578081fd5b50508035926020909101359150565b60008151808452815b818110156109eb576020818501810151868301820152016109cf565b818111156109fc5782602083870101525b50601f01601f19169290920160200192915050565b60609290921b6bffffffffffffffffffffffff19168252601482015260340190565b6001600160a01b0389811682526020820189905260408201889052861660608201526001600160e01b03198516608082015260a0810184905260c0810183905261010060e08201819052600090610a8c838201856109c6565b9b9a5050505050505050505050565b600060018060a01b038516825283602083015260606040830152610ac260608301846109c6565b95945050505050565b90815260200190565b60208082526023908201527f756e61626c6520746f207472616e73666572416e6443616c6c20746f206f7261604082015262636c6560e81b606082015260800190565b60208082526028908201527f536f75726365206d75737420626520746865206f7261636c65206f6620746865604082015267081c995c5d595cdd60c21b606082015260800190565b60008219821115610b7257610b72610cfc565b500190565b80825b6001808611610b895750610bb4565b818704821115610b9b57610b9b610cfc565b80861615610ba857918102915b9490941c938002610b7a565b94509492505050565b60006102dd6000198484600082610bd6575060016102dd565b81610be3575060006102dd565b8160018114610bf95760028114610c0357610c30565b60019150506102dd565b60ff841115610c1457610c14610cfc565b6001841b915084821115610c2a57610c2a610cfc565b506102dd565b5060208310610133831016604e8410600b8410161715610c63575081810a83811115610c5e57610c5e610cfc565b6102dd565b610c708484846001610b77565b808604821115610c8257610c82610cfc565b02949350505050565b6000816000190483118215151615610ca557610ca5610cfc565b500290565b600082821015610cbc57610cbc610cfc565b500390565b6000600019821415610cd557610cd5610cfc565b5060010190565b600082610cf757634e487b7160e01b81526012600452602481fd5b500690565b634e487b7160e01b600052601160045260246000fdfe68747470733a2f2f7777772e616c70686176616e746167652e636f2f71756572793f66756e6374696f6e3d43555252454e43595f45584348414e47455f524154452666726f6d5f63757272656e63793d5553445426746f5f63757272656e63793d494e52266170696b65793d52493055475032555935514754374f4da2646970667358221220d56565560edc47331dbc2d3a4bb1d5d85004c75b0499c4895881317d9365143864736f6c63430008000033",
  "immutableReferences": {},
  "source": "// SPDX-License-Identifier: MIT\npragma solidity >=0.8.0;\n\nimport \"@chainlink/contracts/src/v0.8/ChainlinkClient.sol\";\n\ncontract UsdtToInr is ChainlinkClient {\n    using Chainlink for Chainlink.Request;\n    uint256 public price;\n    \n    address private oracle;\n    bytes32 private jobId;\n    uint256 private fee;\n    \n   \n    constructor() {\n        setChainlinkToken(0x326C977E6efc84E512bB9C30f76E30c160eD06FB);\n        oracle = 0xc8D925525CA8759812d0c299B90247917d4d4b7C;\n        jobId = \"bbf0badad29d49dc887504bacfbb905b\";\n        fee = 0.01 * 10 ** 18;\n    }\n\n    function readPrice() public view returns(uint256) {\n        return price;\n    }\n\n\n    function getPrice() public returns (bytes32 requestId) \n    {\n        Chainlink.Request memory request = buildChainlinkRequest(jobId, address(this), this.fulfill.selector); \n        request.add(\"get\", \"https://www.alphavantage.co/query?function=CURRENCY_EXCHANGE_RATE&from_currency=USDT&to_currency=INR&apikey=RI0UGP2UY5QGT7OM\");\n        \n        string[] memory path = new string[](2);\n        path[0] = \"Realtime Currency Exchange Rate\";\n        path[1] = \"5. Exchange Rate\";\n        request.addStringArray(\"path\", path);\n        \n        return sendChainlinkRequestTo(oracle, request, fee);\n        \n    }\n\n    function fulfill(bytes32 _requestId, uint256 _price) public recordChainlinkFulfillment(_requestId)\n    {\n        price = _price;\n    }\n}",
  "sourcePath": "/home/radhika/buildIt/trial-2/contracts/UsdtToInr.sol",
  "compiler": {
    "name": "solc",
    "version": "0.8.0+commit.c7dfd78e.Emscripten.clang"
  },
  "schemaVersion": "3.4.3",
  "updatedAt": "2021-12-11T04:50:48.114Z",
  "devdoc": {
    "kind": "dev",
    "methods": {},
    "version": 1
  },
  "userdoc": {
    "kind": "user",
    "methods": {},
    "version": 1
  }
}